{
  "_format": "hh-sol-artifact-1",
  "contractName": "TestPriceConverter",
  "sourceName": "contracts/_PriceConverter.sol",
  "abi": [
    {
      "inputs": [
        {
          "internalType": "uint256",
          "name": "_amount",
          "type": "uint256"
        }
      ],
      "name": "_getAvaxEquivalent",
      "outputs": [
        {
          "internalType": "uint256",
          "name": "avaxEquivalent",
          "type": "uint256"
        }
      ],
      "stateMutability": "view",
      "type": "function"
    },
    {
      "inputs": [],
      "name": "_getPrice",
      "outputs": [
        {
          "internalType": "uint256",
          "name": "price",
          "type": "uint256"
        }
      ],
      "stateMutability": "view",
      "type": "function"
    }
  ],
  "bytecode": "0x608060405234801561001057600080fd5b506107e7806100206000396000f3fe608060405234801561001057600080fd5b50600436106100365760003560e01c8063a19af1ad1461003b578063a6a5d13414610059575b600080fd5b610043610089565b6040516100509190610346565b60405180910390f35b610073600480360381019061006e9190610392565b610098565b6040516100809190610346565b60405180910390f35b60006100936100aa565b905090565b60006100a3826102ee565b9050919050565b600080601290506000735498bb86bc934c8d34fda08e81d444153d0d06ad905060008173ffffffffffffffffffffffffffffffffffffffff1663feaf968c6040518163ffffffff1660e01b815260040160a060405180830381865afa158015610117573d6000803e3d6000fd5b505050506040513d601f19601f8201168201806040525081019061013b919061044c565b5050509150508173ffffffffffffffffffffffffffffffffffffffff1663313ce5676040518163ffffffff1660e01b8152600401602060405180830381865afa15801561018c573d6000803e3d6000fd5b505050506040513d601f19601f820116820180604052508101906101b09190610500565b60ff168360ff1610610254578173ffffffffffffffffffffffffffffffffffffffff1663313ce5676040518163ffffffff1660e01b8152600401602060405180830381865afa158015610207573d6000803e3d6000fd5b505050506040513d601f19601f8201168201806040525081019061022b9190610500565b83610236919061055c565b600a61024291906106c4565b8161024d919061070f565b93506102e8565b828273ffffffffffffffffffffffffffffffffffffffff1663313ce5676040518163ffffffff1660e01b8152600401602060405180830381865afa1580156102a0573d6000803e3d6000fd5b505050506040513d601f19601f820116820180604052508101906102c49190610500565b6102ce919061055c565b600a6102da91906106c4565b816102e59190610780565b93505b50505090565b6000806012905060006102ff6100aa565b90508082600a61030f91906106c4565b8561031a919061070f565b6103249190610780565b92505050919050565b6000819050919050565b6103408161032d565b82525050565b600060208201905061035b6000830184610337565b92915050565b600080fd5b61036f8161032d565b811461037a57600080fd5b50565b60008135905061038c81610366565b92915050565b6000602082840312156103a8576103a7610361565b5b60006103b68482850161037d565b91505092915050565b600069ffffffffffffffffffff82169050919050565b6103de816103bf565b81146103e957600080fd5b50565b6000815190506103fb816103d5565b92915050565b6000819050919050565b61041481610401565b811461041f57600080fd5b50565b6000815190506104318161040b565b92915050565b60008151905061044681610366565b92915050565b600080600080600060a0868803121561046857610467610361565b5b6000610476888289016103ec565b955050602061048788828901610422565b945050604061049888828901610437565b93505060606104a988828901610437565b92505060806104ba888289016103ec565b9150509295509295909350565b600060ff82169050919050565b6104dd816104c7565b81146104e857600080fd5b50565b6000815190506104fa816104d4565b92915050565b60006020828403121561051657610515610361565b5b6000610524848285016104eb565b91505092915050565b7f4e487b7100000000000000000000000000000000000000000000000000000000600052601160045260246000fd5b6000610567826104c7565b9150610572836104c7565b9250828203905060ff81111561058b5761058a61052d565b5b92915050565b60008160011c9050919050565b6000808291508390505b60018511156105e8578086048111156105c4576105c361052d565b5b60018516156105d35780820291505b80810290506105e185610591565b94506105a8565b94509492505050565b60008261060157600190506106bd565b8161060f57600090506106bd565b8160018114610625576002811461062f5761065e565b60019150506106bd565b60ff8411156106415761064061052d565b5b8360020a9150848211156106585761065761052d565b5b506106bd565b5060208310610133831016604e8410600b84101617156106935782820a90508381111561068e5761068d61052d565b5b6106bd565b6106a0848484600161059e565b925090508184048111156106b7576106b661052d565b5b81810290505b9392505050565b60006106cf8261032d565b91506106da836104c7565b92506107077fffffffffffffffffffffffffffffffffffffffffffffffffffffffffffffffff84846105f1565b905092915050565b600061071a8261032d565b91506107258361032d565b92508282026107338161032d565b9150828204841483151761074a5761074961052d565b5b5092915050565b7f4e487b7100000000000000000000000000000000000000000000000000000000600052601260045260246000fd5b600061078b8261032d565b91506107968361032d565b9250826107a6576107a5610751565b5b82820490509291505056fea2646970667358221220cdfd757aa7dd5b57d21e3902bddf8d655fc17d864e0b5f60a4c531b16af371b764736f6c63430008110033",
  "linkReferences": {},
  "deployedLinkReferences": {}
}