{"contracts/_PriceConverter.sol":{"TestPriceConverter":{"abi":[{"inputs":[{"internalType":"uint256","name":"_amount","type":"uint256"}],"name":"_getAvaxEquivalent","outputs":[{"internalType":"uint256","name":"avaxEquivalent","type":"uint256"}],"stateMutability":"view","type":"function"},{"inputs":[],"name":"_getPrice","outputs":[{"internalType":"uint256","name":"price","type":"uint256"}],"stateMutability":"view","type":"function"}],"evm":{"bytecode":{"linkReferences":{},"object":"608060405234801561001057600080fd5b506107e7806100206000396000f3fe608060405234801561001057600080fd5b50600436106100365760003560e01c8063a19af1ad1461003b578063a6a5d13414610059575b600080fd5b610043610089565b6040516100509190610346565b60405180910390f35b610073600480360381019061006e9190610392565b610098565b6040516100809190610346565b60405180910390f35b60006100936100aa565b905090565b60006100a3826102ee565b9050919050565b600080601290506000735498bb86bc934c8d34fda08e81d444153d0d06ad905060008173ffffffffffffffffffffffffffffffffffffffff1663feaf968c6040518163ffffffff1660e01b815260040160a060405180830381865afa158015610117573d6000803e3d6000fd5b505050506040513d601f19601f8201168201806040525081019061013b919061044c565b5050509150508173ffffffffffffffffffffffffffffffffffffffff1663313ce5676040518163ffffffff1660e01b8152600401602060405180830381865afa15801561018c573d6000803e3d6000fd5b505050506040513d601f19601f820116820180604052508101906101b09190610500565b60ff168360ff1610610254578173ffffffffffffffffffffffffffffffffffffffff1663313ce5676040518163ffffffff1660e01b8152600401602060405180830381865afa158015610207573d6000803e3d6000fd5b505050506040513d601f19601f8201168201806040525081019061022b9190610500565b83610236919061055c565b600a61024291906106c4565b8161024d919061070f565b93506102e8565b828273ffffffffffffffffffffffffffffffffffffffff1663313ce5676040518163ffffffff1660e01b8152600401602060405180830381865afa1580156102a0573d6000803e3d6000fd5b505050506040513d601f19601f820116820180604052508101906102c49190610500565b6102ce919061055c565b600a6102da91906106c4565b816102e59190610780565b93505b50505090565b6000806012905060006102ff6100aa565b90508082600a61030f91906106c4565b8561031a919061070f565b6103249190610780565b92505050919050565b6000819050919050565b6103408161032d565b82525050565b600060208201905061035b6000830184610337565b92915050565b600080fd5b61036f8161032d565b811461037a57600080fd5b50565b60008135905061038c81610366565b92915050565b6000602082840312156103a8576103a7610361565b5b60006103b68482850161037d565b91505092915050565b600069ffffffffffffffffffff82169050919050565b6103de816103bf565b81146103e957600080fd5b50565b6000815190506103fb816103d5565b92915050565b6000819050919050565b61041481610401565b811461041f57600080fd5b50565b6000815190506104318161040b565b92915050565b60008151905061044681610366565b92915050565b600080600080600060a0868803121561046857610467610361565b5b6000610476888289016103ec565b955050602061048788828901610422565b945050604061049888828901610437565b93505060606104a988828901610437565b92505060806104ba888289016103ec565b9150509295509295909350565b600060ff82169050919050565b6104dd816104c7565b81146104e857600080fd5b50565b6000815190506104fa816104d4565b92915050565b60006020828403121561051657610515610361565b5b6000610524848285016104eb565b91505092915050565b7f4e487b7100000000000000000000000000000000000000000000000000000000600052601160045260246000fd5b6000610567826104c7565b9150610572836104c7565b9250828203905060ff81111561058b5761058a61052d565b5b92915050565b60008160011c9050919050565b6000808291508390505b60018511156105e8578086048111156105c4576105c361052d565b5b60018516156105d35780820291505b80810290506105e185610591565b94506105a8565b94509492505050565b60008261060157600190506106bd565b8161060f57600090506106bd565b8160018114610625576002811461062f5761065e565b60019150506106bd565b60ff8411156106415761064061052d565b5b8360020a9150848211156106585761065761052d565b5b506106bd565b5060208310610133831016604e8410600b84101617156106935782820a90508381111561068e5761068d61052d565b5b6106bd565b6106a0848484600161059e565b925090508184048111156106b7576106b661052d565b5b81810290505b9392505050565b60006106cf8261032d565b91506106da836104c7565b92506107077fffffffffffffffffffffffffffffffffffffffffffffffffffffffffffffffff84846105f1565b905092915050565b600061071a8261032d565b91506107258361032d565b92508282026107338161032d565b9150828204841483151761074a5761074961052d565b5b5092915050565b7f4e487b7100000000000000000000000000000000000000000000000000000000600052601260045260246000fd5b600061078b8261032d565b91506107968361032d565b9250826107a6576107a5610751565b5b82820490509291505056fea2646970667358221220cdfd757aa7dd5b57d21e3902bddf8d655fc17d864e0b5f60a4c531b16af371b764736f6c63430008110033","opcodes":"PUSH1 0x80 PUSH1 0x40 MSTORE CALLVALUE DUP1 ISZERO PUSH2 0x10 JUMPI PUSH1 0x0 DUP1 REVERT JUMPDEST POP PUSH2 0x7E7 DUP1 PUSH2 0x20 PUSH1 0x0 CODECOPY PUSH1 0x0 RETURN INVALID PUSH1 0x80 PUSH1 0x40 MSTORE CALLVALUE DUP1 ISZERO PUSH2 0x10 JUMPI PUSH1 0x0 DUP1 REVERT JUMPDEST POP PUSH1 0x4 CALLDATASIZE LT PUSH2 0x36 JUMPI PUSH1 0x0 CALLDATALOAD PUSH1 0xE0 SHR DUP1 PUSH4 0xA19AF1AD EQ PUSH2 0x3B JUMPI DUP1 PUSH4 0xA6A5D134 EQ PUSH2 0x59 JUMPI JUMPDEST PUSH1 0x0 DUP1 REVERT JUMPDEST PUSH2 0x43 PUSH2 0x89 JUMP JUMPDEST PUSH1 0x40 MLOAD PUSH2 0x50 SWAP2 SWAP1 PUSH2 0x346 JUMP JUMPDEST PUSH1 0x40 MLOAD DUP1 SWAP2 SUB SWAP1 RETURN JUMPDEST PUSH2 0x73 PUSH1 0x4 DUP1 CALLDATASIZE SUB DUP2 ADD SWAP1 PUSH2 0x6E SWAP2 SWAP1 PUSH2 0x392 JUMP JUMPDEST PUSH2 0x98 JUMP JUMPDEST PUSH1 0x40 MLOAD PUSH2 0x80 SWAP2 SWAP1 PUSH2 0x346 JUMP JUMPDEST PUSH1 0x40 MLOAD DUP1 SWAP2 SUB SWAP1 RETURN JUMPDEST PUSH1 0x0 PUSH2 0x93 PUSH2 0xAA JUMP JUMPDEST SWAP1 POP SWAP1 JUMP JUMPDEST PUSH1 0x0 PUSH2 0xA3 DUP3 PUSH2 0x2EE JUMP JUMPDEST SWAP1 POP SWAP2 SWAP1 POP JUMP JUMPDEST PUSH1 0x0 DUP1 PUSH1 0x12 SWAP1 POP PUSH1 0x0 PUSH20 0x5498BB86BC934C8D34FDA08E81D444153D0D06AD SWAP1 POP PUSH1 0x0 DUP2 PUSH20 0xFFFFFFFFFFFFFFFFFFFFFFFFFFFFFFFFFFFFFFFF AND PUSH4 0xFEAF968C PUSH1 0x40 MLOAD DUP2 PUSH4 0xFFFFFFFF AND PUSH1 0xE0 SHL DUP2 MSTORE PUSH1 0x4 ADD PUSH1 0xA0 PUSH1 0x40 MLOAD DUP1 DUP4 SUB DUP2 DUP7 GAS STATICCALL ISZERO DUP1 ISZERO PUSH2 0x117 JUMPI RETURNDATASIZE PUSH1 0x0 DUP1 RETURNDATACOPY RETURNDATASIZE PUSH1 0x0 REVERT JUMPDEST POP POP POP POP PUSH1 0x40 MLOAD RETURNDATASIZE PUSH1 0x1F NOT PUSH1 0x1F DUP3 ADD AND DUP3 ADD DUP1 PUSH1 0x40 MSTORE POP DUP2 ADD SWAP1 PUSH2 0x13B SWAP2 SWAP1 PUSH2 0x44C JUMP JUMPDEST POP POP POP SWAP2 POP POP DUP2 PUSH20 0xFFFFFFFFFFFFFFFFFFFFFFFFFFFFFFFFFFFFFFFF AND PUSH4 0x313CE567 PUSH1 0x40 MLOAD DUP2 PUSH4 0xFFFFFFFF AND PUSH1 0xE0 SHL DUP2 MSTORE PUSH1 0x4 ADD PUSH1 0x20 PUSH1 0x40 MLOAD DUP1 DUP4 SUB DUP2 DUP7 GAS STATICCALL ISZERO DUP1 ISZERO PUSH2 0x18C JUMPI RETURNDATASIZE PUSH1 0x0 DUP1 RETURNDATACOPY RETURNDATASIZE PUSH1 0x0 REVERT JUMPDEST POP POP POP POP PUSH1 0x40 MLOAD RETURNDATASIZE PUSH1 0x1F NOT PUSH1 0x1F DUP3 ADD AND DUP3 ADD DUP1 PUSH1 0x40 MSTORE POP DUP2 ADD SWAP1 PUSH2 0x1B0 SWAP2 SWAP1 PUSH2 0x500 JUMP JUMPDEST PUSH1 0xFF AND DUP4 PUSH1 0xFF AND LT PUSH2 0x254 JUMPI DUP2 PUSH20 0xFFFFFFFFFFFFFFFFFFFFFFFFFFFFFFFFFFFFFFFF AND PUSH4 0x313CE567 PUSH1 0x40 MLOAD DUP2 PUSH4 0xFFFFFFFF AND PUSH1 0xE0 SHL DUP2 MSTORE PUSH1 0x4 ADD PUSH1 0x20 PUSH1 0x40 MLOAD DUP1 DUP4 SUB DUP2 DUP7 GAS STATICCALL ISZERO DUP1 ISZERO PUSH2 0x207 JUMPI RETURNDATASIZE PUSH1 0x0 DUP1 RETURNDATACOPY RETURNDATASIZE PUSH1 0x0 REVERT JUMPDEST POP POP POP POP PUSH1 0x40 MLOAD RETURNDATASIZE PUSH1 0x1F NOT PUSH1 0x1F DUP3 ADD AND DUP3 ADD DUP1 PUSH1 0x40 MSTORE POP DUP2 ADD SWAP1 PUSH2 0x22B SWAP2 SWAP1 PUSH2 0x500 JUMP JUMPDEST DUP4 PUSH2 0x236 SWAP2 SWAP1 PUSH2 0x55C JUMP JUMPDEST PUSH1 0xA PUSH2 0x242 SWAP2 SWAP1 PUSH2 0x6C4 JUMP JUMPDEST DUP2 PUSH2 0x24D SWAP2 SWAP1 PUSH2 0x70F JUMP JUMPDEST SWAP4 POP PUSH2 0x2E8 JUMP JUMPDEST DUP3 DUP3 PUSH20 0xFFFFFFFFFFFFFFFFFFFFFFFFFFFFFFFFFFFFFFFF AND PUSH4 0x313CE567 PUSH1 0x40 MLOAD DUP2 PUSH4 0xFFFFFFFF AND PUSH1 0xE0 SHL DUP2 MSTORE PUSH1 0x4 ADD PUSH1 0x20 PUSH1 0x40 MLOAD DUP1 DUP4 SUB DUP2 DUP7 GAS STATICCALL ISZERO DUP1 ISZERO PUSH2 0x2A0 JUMPI RETURNDATASIZE PUSH1 0x0 DUP1 RETURNDATACOPY RETURNDATASIZE PUSH1 0x0 REVERT JUMPDEST POP POP POP POP PUSH1 0x40 MLOAD RETURNDATASIZE PUSH1 0x1F NOT PUSH1 0x1F DUP3 ADD AND DUP3 ADD DUP1 PUSH1 0x40 MSTORE POP DUP2 ADD SWAP1 PUSH2 0x2C4 SWAP2 SWAP1 PUSH2 0x500 JUMP JUMPDEST PUSH2 0x2CE SWAP2 SWAP1 PUSH2 0x55C JUMP JUMPDEST PUSH1 0xA PUSH2 0x2DA SWAP2 SWAP1 PUSH2 0x6C4 JUMP JUMPDEST DUP2 PUSH2 0x2E5 SWAP2 SWAP1 PUSH2 0x780 JUMP JUMPDEST SWAP4 POP JUMPDEST POP POP POP SWAP1 JUMP JUMPDEST PUSH1 0x0 DUP1 PUSH1 0x12 SWAP1 POP PUSH1 0x0 PUSH2 0x2FF PUSH2 0xAA JUMP JUMPDEST SWAP1 POP DUP1 DUP3 PUSH1 0xA PUSH2 0x30F SWAP2 SWAP1 PUSH2 0x6C4 JUMP JUMPDEST DUP6 PUSH2 0x31A SWAP2 SWAP1 PUSH2 0x70F JUMP JUMPDEST PUSH2 0x324 SWAP2 SWAP1 PUSH2 0x780 JUMP JUMPDEST SWAP3 POP POP POP SWAP2 SWAP1 POP JUMP JUMPDEST PUSH1 0x0 DUP2 SWAP1 POP SWAP2 SWAP1 POP JUMP JUMPDEST PUSH2 0x340 DUP2 PUSH2 0x32D JUMP JUMPDEST DUP3 MSTORE POP POP JUMP JUMPDEST PUSH1 0x0 PUSH1 0x20 DUP3 ADD SWAP1 POP PUSH2 0x35B PUSH1 0x0 DUP4 ADD DUP5 PUSH2 0x337 JUMP JUMPDEST SWAP3 SWAP2 POP POP JUMP JUMPDEST PUSH1 0x0 DUP1 REVERT JUMPDEST PUSH2 0x36F DUP2 PUSH2 0x32D JUMP JUMPDEST DUP2 EQ PUSH2 0x37A JUMPI PUSH1 0x0 DUP1 REVERT JUMPDEST POP JUMP JUMPDEST PUSH1 0x0 DUP2 CALLDATALOAD SWAP1 POP PUSH2 0x38C DUP2 PUSH2 0x366 JUMP JUMPDEST SWAP3 SWAP2 POP POP JUMP JUMPDEST PUSH1 0x0 PUSH1 0x20 DUP3 DUP5 SUB SLT ISZERO PUSH2 0x3A8 JUMPI PUSH2 0x3A7 PUSH2 0x361 JUMP JUMPDEST JUMPDEST PUSH1 0x0 PUSH2 0x3B6 DUP5 DUP3 DUP6 ADD PUSH2 0x37D JUMP JUMPDEST SWAP2 POP POP SWAP3 SWAP2 POP POP JUMP JUMPDEST PUSH1 0x0 PUSH10 0xFFFFFFFFFFFFFFFFFFFF DUP3 AND SWAP1 POP SWAP2 SWAP1 POP JUMP JUMPDEST PUSH2 0x3DE DUP2 PUSH2 0x3BF JUMP JUMPDEST DUP2 EQ PUSH2 0x3E9 JUMPI PUSH1 0x0 DUP1 REVERT JUMPDEST POP JUMP JUMPDEST PUSH1 0x0 DUP2 MLOAD SWAP1 POP PUSH2 0x3FB DUP2 PUSH2 0x3D5 JUMP JUMPDEST SWAP3 SWAP2 POP POP JUMP JUMPDEST PUSH1 0x0 DUP2 SWAP1 POP SWAP2 SWAP1 POP JUMP JUMPDEST PUSH2 0x414 DUP2 PUSH2 0x401 JUMP JUMPDEST DUP2 EQ PUSH2 0x41F JUMPI PUSH1 0x0 DUP1 REVERT JUMPDEST POP JUMP JUMPDEST PUSH1 0x0 DUP2 MLOAD SWAP1 POP PUSH2 0x431 DUP2 PUSH2 0x40B JUMP JUMPDEST SWAP3 SWAP2 POP POP JUMP JUMPDEST PUSH1 0x0 DUP2 MLOAD SWAP1 POP PUSH2 0x446 DUP2 PUSH2 0x366 JUMP JUMPDEST SWAP3 SWAP2 POP POP JUMP JUMPDEST PUSH1 0x0 DUP1 PUSH1 0x0 DUP1 PUSH1 0x0 PUSH1 0xA0 DUP7 DUP9 SUB SLT ISZERO PUSH2 0x468 JUMPI PUSH2 0x467 PUSH2 0x361 JUMP JUMPDEST JUMPDEST PUSH1 0x0 PUSH2 0x476 DUP9 DUP3 DUP10 ADD PUSH2 0x3EC JUMP JUMPDEST SWAP6 POP POP PUSH1 0x20 PUSH2 0x487 DUP9 DUP3 DUP10 ADD PUSH2 0x422 JUMP JUMPDEST SWAP5 POP POP PUSH1 0x40 PUSH2 0x498 DUP9 DUP3 DUP10 ADD PUSH2 0x437 JUMP JUMPDEST SWAP4 POP POP PUSH1 0x60 PUSH2 0x4A9 DUP9 DUP3 DUP10 ADD PUSH2 0x437 JUMP JUMPDEST SWAP3 POP POP PUSH1 0x80 PUSH2 0x4BA DUP9 DUP3 DUP10 ADD PUSH2 0x3EC JUMP JUMPDEST SWAP2 POP POP SWAP3 SWAP6 POP SWAP3 SWAP6 SWAP1 SWAP4 POP JUMP JUMPDEST PUSH1 0x0 PUSH1 0xFF DUP3 AND SWAP1 POP SWAP2 SWAP1 POP JUMP JUMPDEST PUSH2 0x4DD DUP2 PUSH2 0x4C7 JUMP JUMPDEST DUP2 EQ PUSH2 0x4E8 JUMPI PUSH1 0x0 DUP1 REVERT JUMPDEST POP JUMP JUMPDEST PUSH1 0x0 DUP2 MLOAD SWAP1 POP PUSH2 0x4FA DUP2 PUSH2 0x4D4 JUMP JUMPDEST SWAP3 SWAP2 POP POP JUMP JUMPDEST PUSH1 0x0 PUSH1 0x20 DUP3 DUP5 SUB SLT ISZERO PUSH2 0x516 JUMPI PUSH2 0x515 PUSH2 0x361 JUMP JUMPDEST JUMPDEST PUSH1 0x0 PUSH2 0x524 DUP5 DUP3 DUP6 ADD PUSH2 0x4EB JUMP JUMPDEST SWAP2 POP POP SWAP3 SWAP2 POP POP JUMP JUMPDEST PUSH32 0x4E487B7100000000000000000000000000000000000000000000000000000000 PUSH1 0x0 MSTORE PUSH1 0x11 PUSH1 0x4 MSTORE PUSH1 0x24 PUSH1 0x0 REVERT JUMPDEST PUSH1 0x0 PUSH2 0x567 DUP3 PUSH2 0x4C7 JUMP JUMPDEST SWAP2 POP PUSH2 0x572 DUP4 PUSH2 0x4C7 JUMP JUMPDEST SWAP3 POP DUP3 DUP3 SUB SWAP1 POP PUSH1 0xFF DUP2 GT ISZERO PUSH2 0x58B JUMPI PUSH2 0x58A PUSH2 0x52D JUMP JUMPDEST JUMPDEST SWAP3 SWAP2 POP POP JUMP JUMPDEST PUSH1 0x0 DUP2 PUSH1 0x1 SHR SWAP1 POP SWAP2 SWAP1 POP JUMP JUMPDEST PUSH1 0x0 DUP1 DUP3 SWAP2 POP DUP4 SWAP1 POP JUMPDEST PUSH1 0x1 DUP6 GT ISZERO PUSH2 0x5E8 JUMPI DUP1 DUP7 DIV DUP2 GT ISZERO PUSH2 0x5C4 JUMPI PUSH2 0x5C3 PUSH2 0x52D JUMP JUMPDEST JUMPDEST PUSH1 0x1 DUP6 AND ISZERO PUSH2 0x5D3 JUMPI DUP1 DUP3 MUL SWAP2 POP JUMPDEST DUP1 DUP2 MUL SWAP1 POP PUSH2 0x5E1 DUP6 PUSH2 0x591 JUMP JUMPDEST SWAP5 POP PUSH2 0x5A8 JUMP JUMPDEST SWAP5 POP SWAP5 SWAP3 POP POP POP JUMP JUMPDEST PUSH1 0x0 DUP3 PUSH2 0x601 JUMPI PUSH1 0x1 SWAP1 POP PUSH2 0x6BD JUMP JUMPDEST DUP2 PUSH2 0x60F JUMPI PUSH1 0x0 SWAP1 POP PUSH2 0x6BD JUMP JUMPDEST DUP2 PUSH1 0x1 DUP2 EQ PUSH2 0x625 JUMPI PUSH1 0x2 DUP2 EQ PUSH2 0x62F JUMPI PUSH2 0x65E JUMP JUMPDEST PUSH1 0x1 SWAP2 POP POP PUSH2 0x6BD JUMP JUMPDEST PUSH1 0xFF DUP5 GT ISZERO PUSH2 0x641 JUMPI PUSH2 0x640 PUSH2 0x52D JUMP JUMPDEST JUMPDEST DUP4 PUSH1 0x2 EXP SWAP2 POP DUP5 DUP3 GT ISZERO PUSH2 0x658 JUMPI PUSH2 0x657 PUSH2 0x52D JUMP JUMPDEST JUMPDEST POP PUSH2 0x6BD JUMP JUMPDEST POP PUSH1 0x20 DUP4 LT PUSH2 0x133 DUP4 LT AND PUSH1 0x4E DUP5 LT PUSH1 0xB DUP5 LT AND OR ISZERO PUSH2 0x693 JUMPI DUP3 DUP3 EXP SWAP1 POP DUP4 DUP2 GT ISZERO PUSH2 0x68E JUMPI PUSH2 0x68D PUSH2 0x52D JUMP JUMPDEST JUMPDEST PUSH2 0x6BD JUMP JUMPDEST PUSH2 0x6A0 DUP5 DUP5 DUP5 PUSH1 0x1 PUSH2 0x59E JUMP JUMPDEST SWAP3 POP SWAP1 POP DUP2 DUP5 DIV DUP2 GT ISZERO PUSH2 0x6B7 JUMPI PUSH2 0x6B6 PUSH2 0x52D JUMP JUMPDEST JUMPDEST DUP2 DUP2 MUL SWAP1 POP JUMPDEST SWAP4 SWAP3 POP POP POP JUMP JUMPDEST PUSH1 0x0 PUSH2 0x6CF DUP3 PUSH2 0x32D JUMP JUMPDEST SWAP2 POP PUSH2 0x6DA DUP4 PUSH2 0x4C7 JUMP JUMPDEST SWAP3 POP PUSH2 0x707 PUSH32 0xFFFFFFFFFFFFFFFFFFFFFFFFFFFFFFFFFFFFFFFFFFFFFFFFFFFFFFFFFFFFFFFF DUP5 DUP5 PUSH2 0x5F1 JUMP JUMPDEST SWAP1 POP SWAP3 SWAP2 POP POP JUMP JUMPDEST PUSH1 0x0 PUSH2 0x71A DUP3 PUSH2 0x32D JUMP JUMPDEST SWAP2 POP PUSH2 0x725 DUP4 PUSH2 0x32D JUMP JUMPDEST SWAP3 POP DUP3 DUP3 MUL PUSH2 0x733 DUP2 PUSH2 0x32D JUMP JUMPDEST SWAP2 POP DUP3 DUP3 DIV DUP5 EQ DUP4 ISZERO OR PUSH2 0x74A JUMPI PUSH2 0x749 PUSH2 0x52D JUMP JUMPDEST JUMPDEST POP SWAP3 SWAP2 POP POP JUMP JUMPDEST PUSH32 0x4E487B7100000000000000000000000000000000000000000000000000000000 PUSH1 0x0 MSTORE PUSH1 0x12 PUSH1 0x4 MSTORE PUSH1 0x24 PUSH1 0x0 REVERT JUMPDEST PUSH1 0x0 PUSH2 0x78B DUP3 PUSH2 0x32D JUMP JUMPDEST SWAP2 POP PUSH2 0x796 DUP4 PUSH2 0x32D JUMP JUMPDEST SWAP3 POP DUP3 PUSH2 0x7A6 JUMPI PUSH2 0x7A5 PUSH2 0x751 JUMP JUMPDEST JUMPDEST DUP3 DUP3 DIV SWAP1 POP SWAP3 SWAP2 POP POP JUMP INVALID LOG2 PUSH5 0x6970667358 0x22 SLT KECCAK256 0xCD REVERT PUSH22 0x7AA7DD5B57D21E3902BDDF8D655FC17D864E0B5F60A4 0xC5 BALANCE 0xB1 PUSH11 0xF371B764736F6C63430008 GT STOP CALLER "},"methodIdentifiers":{"_getAvaxEquivalent(uint256)":"a6a5d134","_getPrice()":"a19af1ad"}}}}}