{"contracts/_PriceConverter.sol":{"TestPriceConverter":{"abi":[{"inputs":[{"internalType":"uint256","name":"_amount","type":"uint256"}],"name":"getAvaxEquivalent","outputs":[{"internalType":"uint256","name":"","type":"uint256"}],"stateMutability":"nonpayable","type":"function"}],"evm":{"bytecode":{"linkReferences":{},"object":"608060405234801561001057600080fd5b506107b1806100206000396000f3fe608060405234801561001057600080fd5b506004361061002b5760003560e01c80636ae180c114610030575b600080fd5b61004a60048036038101906100459190610332565b610060565b604051610057919061036e565b60405180910390f35b60008061006c83610074565b905050919050565b6000806012905060006100856100b3565b90508082600a61009591906104f8565b856100a09190610543565b6100aa91906105b4565b92505050919050565b600080601290506000735498bb86bc934c8d34fda08e81d444153d0d06ad905060008173ffffffffffffffffffffffffffffffffffffffff1663feaf968c6040518163ffffffff1660e01b815260040160a060405180830381865afa158015610120573d6000803e3d6000fd5b505050506040513d601f19601f820116820180604052508101906101449190610672565b5050509150508173ffffffffffffffffffffffffffffffffffffffff1663313ce5676040518163ffffffff1660e01b8152600401602060405180830381865afa158015610195573d6000803e3d6000fd5b505050506040513d601f19601f820116820180604052508101906101b99190610719565b60ff168360ff161061025d578173ffffffffffffffffffffffffffffffffffffffff1663313ce5676040518163ffffffff1660e01b8152600401602060405180830381865afa158015610210573d6000803e3d6000fd5b505050506040513d601f19601f820116820180604052508101906102349190610719565b8361023f9190610746565b600a61024b91906104f8565b816102569190610543565b93506102f1565b828273ffffffffffffffffffffffffffffffffffffffff1663313ce5676040518163ffffffff1660e01b8152600401602060405180830381865afa1580156102a9573d6000803e3d6000fd5b505050506040513d601f19601f820116820180604052508101906102cd9190610719565b6102d79190610746565b600a6102e391906104f8565b816102ee91906105b4565b93505b50505090565b600080fd5b6000819050919050565b61030f816102fc565b811461031a57600080fd5b50565b60008135905061032c81610306565b92915050565b600060208284031215610348576103476102f7565b5b60006103568482850161031d565b91505092915050565b610368816102fc565b82525050565b6000602082019050610383600083018461035f565b92915050565b7f4e487b7100000000000000000000000000000000000000000000000000000000600052601160045260246000fd5b60008160011c9050919050565b6000808291508390505b600185111561040f578086048111156103eb576103ea610389565b5b60018516156103fa5780820291505b8081029050610408856103b8565b94506103cf565b94509492505050565b60008261042857600190506104e4565b8161043657600090506104e4565b816001811461044c576002811461045657610485565b60019150506104e4565b60ff84111561046857610467610389565b5b8360020a91508482111561047f5761047e610389565b5b506104e4565b5060208310610133831016604e8410600b84101617156104ba5782820a9050838111156104b5576104b4610389565b5b6104e4565b6104c784848460016103c5565b925090508184048111156104de576104dd610389565b5b81810290505b9392505050565b600060ff82169050919050565b6000610503826102fc565b915061050e836104eb565b925061053b7fffffffffffffffffffffffffffffffffffffffffffffffffffffffffffffffff8484610418565b905092915050565b600061054e826102fc565b9150610559836102fc565b9250828202610567816102fc565b9150828204841483151761057e5761057d610389565b5b5092915050565b7f4e487b7100000000000000000000000000000000000000000000000000000000600052601260045260246000fd5b60006105bf826102fc565b91506105ca836102fc565b9250826105da576105d9610585565b5b828204905092915050565b600069ffffffffffffffffffff82169050919050565b610604816105e5565b811461060f57600080fd5b50565b600081519050610621816105fb565b92915050565b6000819050919050565b61063a81610627565b811461064557600080fd5b50565b60008151905061065781610631565b92915050565b60008151905061066c81610306565b92915050565b600080600080600060a0868803121561068e5761068d6102f7565b5b600061069c88828901610612565b95505060206106ad88828901610648565b94505060406106be8882890161065d565b93505060606106cf8882890161065d565b92505060806106e088828901610612565b9150509295509295909350565b6106f6816104eb565b811461070157600080fd5b50565b600081519050610713816106ed565b92915050565b60006020828403121561072f5761072e6102f7565b5b600061073d84828501610704565b91505092915050565b6000610751826104eb565b915061075c836104eb565b9250828203905060ff81111561077557610774610389565b5b9291505056fea2646970667358221220ae27848196b0e0f73d233994496d3fcf3ebf080443bc8881bd8f43aa1e6f4e9f64736f6c63430008110033","opcodes":"PUSH1 0x80 PUSH1 0x40 MSTORE CALLVALUE DUP1 ISZERO PUSH2 0x10 JUMPI PUSH1 0x0 DUP1 REVERT JUMPDEST POP PUSH2 0x7B1 DUP1 PUSH2 0x20 PUSH1 0x0 CODECOPY PUSH1 0x0 RETURN INVALID PUSH1 0x80 PUSH1 0x40 MSTORE CALLVALUE DUP1 ISZERO PUSH2 0x10 JUMPI PUSH1 0x0 DUP1 REVERT JUMPDEST POP PUSH1 0x4 CALLDATASIZE LT PUSH2 0x2B JUMPI PUSH1 0x0 CALLDATALOAD PUSH1 0xE0 SHR DUP1 PUSH4 0x6AE180C1 EQ PUSH2 0x30 JUMPI JUMPDEST PUSH1 0x0 DUP1 REVERT JUMPDEST PUSH2 0x4A PUSH1 0x4 DUP1 CALLDATASIZE SUB DUP2 ADD SWAP1 PUSH2 0x45 SWAP2 SWAP1 PUSH2 0x332 JUMP JUMPDEST PUSH2 0x60 JUMP JUMPDEST PUSH1 0x40 MLOAD PUSH2 0x57 SWAP2 SWAP1 PUSH2 0x36E JUMP JUMPDEST PUSH1 0x40 MLOAD DUP1 SWAP2 SUB SWAP1 RETURN JUMPDEST PUSH1 0x0 DUP1 PUSH2 0x6C DUP4 PUSH2 0x74 JUMP JUMPDEST SWAP1 POP POP SWAP2 SWAP1 POP JUMP JUMPDEST PUSH1 0x0 DUP1 PUSH1 0x12 SWAP1 POP PUSH1 0x0 PUSH2 0x85 PUSH2 0xB3 JUMP JUMPDEST SWAP1 POP DUP1 DUP3 PUSH1 0xA PUSH2 0x95 SWAP2 SWAP1 PUSH2 0x4F8 JUMP JUMPDEST DUP6 PUSH2 0xA0 SWAP2 SWAP1 PUSH2 0x543 JUMP JUMPDEST PUSH2 0xAA SWAP2 SWAP1 PUSH2 0x5B4 JUMP JUMPDEST SWAP3 POP POP POP SWAP2 SWAP1 POP JUMP JUMPDEST PUSH1 0x0 DUP1 PUSH1 0x12 SWAP1 POP PUSH1 0x0 PUSH20 0x5498BB86BC934C8D34FDA08E81D444153D0D06AD SWAP1 POP PUSH1 0x0 DUP2 PUSH20 0xFFFFFFFFFFFFFFFFFFFFFFFFFFFFFFFFFFFFFFFF AND PUSH4 0xFEAF968C PUSH1 0x40 MLOAD DUP2 PUSH4 0xFFFFFFFF AND PUSH1 0xE0 SHL DUP2 MSTORE PUSH1 0x4 ADD PUSH1 0xA0 PUSH1 0x40 MLOAD DUP1 DUP4 SUB DUP2 DUP7 GAS STATICCALL ISZERO DUP1 ISZERO PUSH2 0x120 JUMPI RETURNDATASIZE PUSH1 0x0 DUP1 RETURNDATACOPY RETURNDATASIZE PUSH1 0x0 REVERT JUMPDEST POP POP POP POP PUSH1 0x40 MLOAD RETURNDATASIZE PUSH1 0x1F NOT PUSH1 0x1F DUP3 ADD AND DUP3 ADD DUP1 PUSH1 0x40 MSTORE POP DUP2 ADD SWAP1 PUSH2 0x144 SWAP2 SWAP1 PUSH2 0x672 JUMP JUMPDEST POP POP POP SWAP2 POP POP DUP2 PUSH20 0xFFFFFFFFFFFFFFFFFFFFFFFFFFFFFFFFFFFFFFFF AND PUSH4 0x313CE567 PUSH1 0x40 MLOAD DUP2 PUSH4 0xFFFFFFFF AND PUSH1 0xE0 SHL DUP2 MSTORE PUSH1 0x4 ADD PUSH1 0x20 PUSH1 0x40 MLOAD DUP1 DUP4 SUB DUP2 DUP7 GAS STATICCALL ISZERO DUP1 ISZERO PUSH2 0x195 JUMPI RETURNDATASIZE PUSH1 0x0 DUP1 RETURNDATACOPY RETURNDATASIZE PUSH1 0x0 REVERT JUMPDEST POP POP POP POP PUSH1 0x40 MLOAD RETURNDATASIZE PUSH1 0x1F NOT PUSH1 0x1F DUP3 ADD AND DUP3 ADD DUP1 PUSH1 0x40 MSTORE POP DUP2 ADD SWAP1 PUSH2 0x1B9 SWAP2 SWAP1 PUSH2 0x719 JUMP JUMPDEST PUSH1 0xFF AND DUP4 PUSH1 0xFF AND LT PUSH2 0x25D JUMPI DUP2 PUSH20 0xFFFFFFFFFFFFFFFFFFFFFFFFFFFFFFFFFFFFFFFF AND PUSH4 0x313CE567 PUSH1 0x40 MLOAD DUP2 PUSH4 0xFFFFFFFF AND PUSH1 0xE0 SHL DUP2 MSTORE PUSH1 0x4 ADD PUSH1 0x20 PUSH1 0x40 MLOAD DUP1 DUP4 SUB DUP2 DUP7 GAS STATICCALL ISZERO DUP1 ISZERO PUSH2 0x210 JUMPI RETURNDATASIZE PUSH1 0x0 DUP1 RETURNDATACOPY RETURNDATASIZE PUSH1 0x0 REVERT JUMPDEST POP POP POP POP PUSH1 0x40 MLOAD RETURNDATASIZE PUSH1 0x1F NOT PUSH1 0x1F DUP3 ADD AND DUP3 ADD DUP1 PUSH1 0x40 MSTORE POP DUP2 ADD SWAP1 PUSH2 0x234 SWAP2 SWAP1 PUSH2 0x719 JUMP JUMPDEST DUP4 PUSH2 0x23F SWAP2 SWAP1 PUSH2 0x746 JUMP JUMPDEST PUSH1 0xA PUSH2 0x24B SWAP2 SWAP1 PUSH2 0x4F8 JUMP JUMPDEST DUP2 PUSH2 0x256 SWAP2 SWAP1 PUSH2 0x543 JUMP JUMPDEST SWAP4 POP PUSH2 0x2F1 JUMP JUMPDEST DUP3 DUP3 PUSH20 0xFFFFFFFFFFFFFFFFFFFFFFFFFFFFFFFFFFFFFFFF AND PUSH4 0x313CE567 PUSH1 0x40 MLOAD DUP2 PUSH4 0xFFFFFFFF AND PUSH1 0xE0 SHL DUP2 MSTORE PUSH1 0x4 ADD PUSH1 0x20 PUSH1 0x40 MLOAD DUP1 DUP4 SUB DUP2 DUP7 GAS STATICCALL ISZERO DUP1 ISZERO PUSH2 0x2A9 JUMPI RETURNDATASIZE PUSH1 0x0 DUP1 RETURNDATACOPY RETURNDATASIZE PUSH1 0x0 REVERT JUMPDEST POP POP POP POP PUSH1 0x40 MLOAD RETURNDATASIZE PUSH1 0x1F NOT PUSH1 0x1F DUP3 ADD AND DUP3 ADD DUP1 PUSH1 0x40 MSTORE POP DUP2 ADD SWAP1 PUSH2 0x2CD SWAP2 SWAP1 PUSH2 0x719 JUMP JUMPDEST PUSH2 0x2D7 SWAP2 SWAP1 PUSH2 0x746 JUMP JUMPDEST PUSH1 0xA PUSH2 0x2E3 SWAP2 SWAP1 PUSH2 0x4F8 JUMP JUMPDEST DUP2 PUSH2 0x2EE SWAP2 SWAP1 PUSH2 0x5B4 JUMP JUMPDEST SWAP4 POP JUMPDEST POP POP POP SWAP1 JUMP JUMPDEST PUSH1 0x0 DUP1 REVERT JUMPDEST PUSH1 0x0 DUP2 SWAP1 POP SWAP2 SWAP1 POP JUMP JUMPDEST PUSH2 0x30F DUP2 PUSH2 0x2FC JUMP JUMPDEST DUP2 EQ PUSH2 0x31A JUMPI PUSH1 0x0 DUP1 REVERT JUMPDEST POP JUMP JUMPDEST PUSH1 0x0 DUP2 CALLDATALOAD SWAP1 POP PUSH2 0x32C DUP2 PUSH2 0x306 JUMP JUMPDEST SWAP3 SWAP2 POP POP JUMP JUMPDEST PUSH1 0x0 PUSH1 0x20 DUP3 DUP5 SUB SLT ISZERO PUSH2 0x348 JUMPI PUSH2 0x347 PUSH2 0x2F7 JUMP JUMPDEST JUMPDEST PUSH1 0x0 PUSH2 0x356 DUP5 DUP3 DUP6 ADD PUSH2 0x31D JUMP JUMPDEST SWAP2 POP POP SWAP3 SWAP2 POP POP JUMP JUMPDEST PUSH2 0x368 DUP2 PUSH2 0x2FC JUMP JUMPDEST DUP3 MSTORE POP POP JUMP JUMPDEST PUSH1 0x0 PUSH1 0x20 DUP3 ADD SWAP1 POP PUSH2 0x383 PUSH1 0x0 DUP4 ADD DUP5 PUSH2 0x35F JUMP JUMPDEST SWAP3 SWAP2 POP POP JUMP JUMPDEST PUSH32 0x4E487B7100000000000000000000000000000000000000000000000000000000 PUSH1 0x0 MSTORE PUSH1 0x11 PUSH1 0x4 MSTORE PUSH1 0x24 PUSH1 0x0 REVERT JUMPDEST PUSH1 0x0 DUP2 PUSH1 0x1 SHR SWAP1 POP SWAP2 SWAP1 POP JUMP JUMPDEST PUSH1 0x0 DUP1 DUP3 SWAP2 POP DUP4 SWAP1 POP JUMPDEST PUSH1 0x1 DUP6 GT ISZERO PUSH2 0x40F JUMPI DUP1 DUP7 DIV DUP2 GT ISZERO PUSH2 0x3EB JUMPI PUSH2 0x3EA PUSH2 0x389 JUMP JUMPDEST JUMPDEST PUSH1 0x1 DUP6 AND ISZERO PUSH2 0x3FA JUMPI DUP1 DUP3 MUL SWAP2 POP JUMPDEST DUP1 DUP2 MUL SWAP1 POP PUSH2 0x408 DUP6 PUSH2 0x3B8 JUMP JUMPDEST SWAP5 POP PUSH2 0x3CF JUMP JUMPDEST SWAP5 POP SWAP5 SWAP3 POP POP POP JUMP JUMPDEST PUSH1 0x0 DUP3 PUSH2 0x428 JUMPI PUSH1 0x1 SWAP1 POP PUSH2 0x4E4 JUMP JUMPDEST DUP2 PUSH2 0x436 JUMPI PUSH1 0x0 SWAP1 POP PUSH2 0x4E4 JUMP JUMPDEST DUP2 PUSH1 0x1 DUP2 EQ PUSH2 0x44C JUMPI PUSH1 0x2 DUP2 EQ PUSH2 0x456 JUMPI PUSH2 0x485 JUMP JUMPDEST PUSH1 0x1 SWAP2 POP POP PUSH2 0x4E4 JUMP JUMPDEST PUSH1 0xFF DUP5 GT ISZERO PUSH2 0x468 JUMPI PUSH2 0x467 PUSH2 0x389 JUMP JUMPDEST JUMPDEST DUP4 PUSH1 0x2 EXP SWAP2 POP DUP5 DUP3 GT ISZERO PUSH2 0x47F JUMPI PUSH2 0x47E PUSH2 0x389 JUMP JUMPDEST JUMPDEST POP PUSH2 0x4E4 JUMP JUMPDEST POP PUSH1 0x20 DUP4 LT PUSH2 0x133 DUP4 LT AND PUSH1 0x4E DUP5 LT PUSH1 0xB DUP5 LT AND OR ISZERO PUSH2 0x4BA JUMPI DUP3 DUP3 EXP SWAP1 POP DUP4 DUP2 GT ISZERO PUSH2 0x4B5 JUMPI PUSH2 0x4B4 PUSH2 0x389 JUMP JUMPDEST JUMPDEST PUSH2 0x4E4 JUMP JUMPDEST PUSH2 0x4C7 DUP5 DUP5 DUP5 PUSH1 0x1 PUSH2 0x3C5 JUMP JUMPDEST SWAP3 POP SWAP1 POP DUP2 DUP5 DIV DUP2 GT ISZERO PUSH2 0x4DE JUMPI PUSH2 0x4DD PUSH2 0x389 JUMP JUMPDEST JUMPDEST DUP2 DUP2 MUL SWAP1 POP JUMPDEST SWAP4 SWAP3 POP POP POP JUMP JUMPDEST PUSH1 0x0 PUSH1 0xFF DUP3 AND SWAP1 POP SWAP2 SWAP1 POP JUMP JUMPDEST PUSH1 0x0 PUSH2 0x503 DUP3 PUSH2 0x2FC JUMP JUMPDEST SWAP2 POP PUSH2 0x50E DUP4 PUSH2 0x4EB JUMP JUMPDEST SWAP3 POP PUSH2 0x53B PUSH32 0xFFFFFFFFFFFFFFFFFFFFFFFFFFFFFFFFFFFFFFFFFFFFFFFFFFFFFFFFFFFFFFFF DUP5 DUP5 PUSH2 0x418 JUMP JUMPDEST SWAP1 POP SWAP3 SWAP2 POP POP JUMP JUMPDEST PUSH1 0x0 PUSH2 0x54E DUP3 PUSH2 0x2FC JUMP JUMPDEST SWAP2 POP PUSH2 0x559 DUP4 PUSH2 0x2FC JUMP JUMPDEST SWAP3 POP DUP3 DUP3 MUL PUSH2 0x567 DUP2 PUSH2 0x2FC JUMP JUMPDEST SWAP2 POP DUP3 DUP3 DIV DUP5 EQ DUP4 ISZERO OR PUSH2 0x57E JUMPI PUSH2 0x57D PUSH2 0x389 JUMP JUMPDEST JUMPDEST POP SWAP3 SWAP2 POP POP JUMP JUMPDEST PUSH32 0x4E487B7100000000000000000000000000000000000000000000000000000000 PUSH1 0x0 MSTORE PUSH1 0x12 PUSH1 0x4 MSTORE PUSH1 0x24 PUSH1 0x0 REVERT JUMPDEST PUSH1 0x0 PUSH2 0x5BF DUP3 PUSH2 0x2FC JUMP JUMPDEST SWAP2 POP PUSH2 0x5CA DUP4 PUSH2 0x2FC JUMP JUMPDEST SWAP3 POP DUP3 PUSH2 0x5DA JUMPI PUSH2 0x5D9 PUSH2 0x585 JUMP JUMPDEST JUMPDEST DUP3 DUP3 DIV SWAP1 POP SWAP3 SWAP2 POP POP JUMP JUMPDEST PUSH1 0x0 PUSH10 0xFFFFFFFFFFFFFFFFFFFF DUP3 AND SWAP1 POP SWAP2 SWAP1 POP JUMP JUMPDEST PUSH2 0x604 DUP2 PUSH2 0x5E5 JUMP JUMPDEST DUP2 EQ PUSH2 0x60F JUMPI PUSH1 0x0 DUP1 REVERT JUMPDEST POP JUMP JUMPDEST PUSH1 0x0 DUP2 MLOAD SWAP1 POP PUSH2 0x621 DUP2 PUSH2 0x5FB JUMP JUMPDEST SWAP3 SWAP2 POP POP JUMP JUMPDEST PUSH1 0x0 DUP2 SWAP1 POP SWAP2 SWAP1 POP JUMP JUMPDEST PUSH2 0x63A DUP2 PUSH2 0x627 JUMP JUMPDEST DUP2 EQ PUSH2 0x645 JUMPI PUSH1 0x0 DUP1 REVERT JUMPDEST POP JUMP JUMPDEST PUSH1 0x0 DUP2 MLOAD SWAP1 POP PUSH2 0x657 DUP2 PUSH2 0x631 JUMP JUMPDEST SWAP3 SWAP2 POP POP JUMP JUMPDEST PUSH1 0x0 DUP2 MLOAD SWAP1 POP PUSH2 0x66C DUP2 PUSH2 0x306 JUMP JUMPDEST SWAP3 SWAP2 POP POP JUMP JUMPDEST PUSH1 0x0 DUP1 PUSH1 0x0 DUP1 PUSH1 0x0 PUSH1 0xA0 DUP7 DUP9 SUB SLT ISZERO PUSH2 0x68E JUMPI PUSH2 0x68D PUSH2 0x2F7 JUMP JUMPDEST JUMPDEST PUSH1 0x0 PUSH2 0x69C DUP9 DUP3 DUP10 ADD PUSH2 0x612 JUMP JUMPDEST SWAP6 POP POP PUSH1 0x20 PUSH2 0x6AD DUP9 DUP3 DUP10 ADD PUSH2 0x648 JUMP JUMPDEST SWAP5 POP POP PUSH1 0x40 PUSH2 0x6BE DUP9 DUP3 DUP10 ADD PUSH2 0x65D JUMP JUMPDEST SWAP4 POP POP PUSH1 0x60 PUSH2 0x6CF DUP9 DUP3 DUP10 ADD PUSH2 0x65D JUMP JUMPDEST SWAP3 POP POP PUSH1 0x80 PUSH2 0x6E0 DUP9 DUP3 DUP10 ADD PUSH2 0x612 JUMP JUMPDEST SWAP2 POP POP SWAP3 SWAP6 POP SWAP3 SWAP6 SWAP1 SWAP4 POP JUMP JUMPDEST PUSH2 0x6F6 DUP2 PUSH2 0x4EB JUMP JUMPDEST DUP2 EQ PUSH2 0x701 JUMPI PUSH1 0x0 DUP1 REVERT JUMPDEST POP JUMP JUMPDEST PUSH1 0x0 DUP2 MLOAD SWAP1 POP PUSH2 0x713 DUP2 PUSH2 0x6ED JUMP JUMPDEST SWAP3 SWAP2 POP POP JUMP JUMPDEST PUSH1 0x0 PUSH1 0x20 DUP3 DUP5 SUB SLT ISZERO PUSH2 0x72F JUMPI PUSH2 0x72E PUSH2 0x2F7 JUMP JUMPDEST JUMPDEST PUSH1 0x0 PUSH2 0x73D DUP5 DUP3 DUP6 ADD PUSH2 0x704 JUMP JUMPDEST SWAP2 POP POP SWAP3 SWAP2 POP POP JUMP JUMPDEST PUSH1 0x0 PUSH2 0x751 DUP3 PUSH2 0x4EB JUMP JUMPDEST SWAP2 POP PUSH2 0x75C DUP4 PUSH2 0x4EB JUMP JUMPDEST SWAP3 POP DUP3 DUP3 SUB SWAP1 POP PUSH1 0xFF DUP2 GT ISZERO PUSH2 0x775 JUMPI PUSH2 0x774 PUSH2 0x389 JUMP JUMPDEST JUMPDEST SWAP3 SWAP2 POP POP JUMP INVALID LOG2 PUSH5 0x6970667358 0x22 SLT KECCAK256 0xAE 0x27 DUP5 DUP2 SWAP7 0xB0 0xE0 0xF7 RETURNDATASIZE 0x23 CODECOPY SWAP5 0x49 PUSH14 0x3FCF3EBF080443BC8881BD8F43AA 0x1E PUSH16 0x4E9F64736F6C63430008110033000000 "},"methodIdentifiers":{"getAvaxEquivalent(uint256)":"6ae180c1"}}}}}