{
  "_format": "hh-sol-artifact-1",
  "contractName": "StakeHolder",
  "sourceName": "contracts/StakeHolder.sol",
  "abi": [
    {
      "inputs": [],
      "stateMutability": "nonpayable",
      "type": "constructor"
    },
    {
      "inputs": [],
      "name": "NotOwner",
      "type": "error"
    },
    {
      "stateMutability": "payable",
      "type": "fallback"
    },
    {
      "inputs": [],
      "name": "MINIMUM_USD",
      "outputs": [
        {
          "internalType": "uint256",
          "name": "",
          "type": "uint256"
        }
      ],
      "stateMutability": "view",
      "type": "function"
    },
    {
      "inputs": [],
      "name": "StakingPeriod",
      "outputs": [
        {
          "internalType": "uint256",
          "name": "",
          "type": "uint256"
        }
      ],
      "stateMutability": "view",
      "type": "function"
    },
    {
      "inputs": [
        {
          "internalType": "address",
          "name": "",
          "type": "address"
        }
      ],
      "name": "addressToAmountFunded",
      "outputs": [
        {
          "internalType": "uint256",
          "name": "",
          "type": "uint256"
        }
      ],
      "stateMutability": "view",
      "type": "function"
    },
    {
      "inputs": [],
      "name": "checkBalance",
      "outputs": [
        {
          "internalType": "uint256",
          "name": "",
          "type": "uint256"
        }
      ],
      "stateMutability": "view",
      "type": "function"
    },
    {
      "inputs": [],
      "name": "contractOwner",
      "outputs": [
        {
          "internalType": "address",
          "name": "",
          "type": "address"
        }
      ],
      "stateMutability": "view",
      "type": "function"
    },
    {
      "inputs": [],
      "name": "fund",
      "outputs": [],
      "stateMutability": "payable",
      "type": "function"
    },
    {
      "inputs": [],
      "name": "funderCount",
      "outputs": [
        {
          "internalType": "uint256",
          "name": "",
          "type": "uint256"
        }
      ],
      "stateMutability": "view",
      "type": "function"
    },
    {
      "inputs": [
        {
          "internalType": "uint256",
          "name": "",
          "type": "uint256"
        }
      ],
      "name": "funders",
      "outputs": [
        {
          "internalType": "address",
          "name": "",
          "type": "address"
        }
      ],
      "stateMutability": "view",
      "type": "function"
    },
    {
      "inputs": [],
      "name": "numberOfDaysSinceStakingBegan",
      "outputs": [
        {
          "internalType": "uint256",
          "name": "",
          "type": "uint256"
        }
      ],
      "stateMutability": "view",
      "type": "function"
    },
    {
      "inputs": [],
      "name": "stakingEnded",
      "outputs": [
        {
          "internalType": "bool",
          "name": "",
          "type": "bool"
        }
      ],
      "stateMutability": "nonpayable",
      "type": "function"
    },
    {
      "inputs": [],
      "name": "status",
      "outputs": [
        {
          "internalType": "enum StakeHolder.StakingStatus",
          "name": "",
          "type": "uint8"
        }
      ],
      "stateMutability": "view",
      "type": "function"
    },
    {
      "inputs": [],
      "name": "withdraw",
      "outputs": [],
      "stateMutability": "nonpayable",
      "type": "function"
    },
    {
      "stateMutability": "payable",
      "type": "receive"
    }
  ],
  "bytecode": "0x60a0604052600060035534801561001557600080fd5b503373ffffffffffffffffffffffffffffffffffffffff1660808173ffffffffffffffffffffffffffffffffffffffff1681525050608051611135610073600039600081816103e10152818161046f015261076601526111356000f3fe6080604052600436106100ab5760003560e01c80635e5dc660116100645780635e5dc660146101c45780636b69a592146101ef578063b60d42881461021a578063c71daccb14610224578063ce606ee01461024f578063dc0d3dff1461027a576100ba565b80630b3bc259146100c4578063200d2ed2146100ef5780633ccfd60b1461011a5780633e47d6f3146101315780635600c3b31461016e5780635b9d73c614610199576100ba565b366100ba576100b86102b7565b005b6100c26102b7565b005b3480156100d057600080fd5b506100d96103c6565b6040516100e6919061096a565b60405180910390f35b3480156100fb57600080fd5b506101046103cc565b60405161011191906109fc565b60405180910390f35b34801561012657600080fd5b5061012f6103df565b005b34801561013d57600080fd5b5061015860048036038101906101539190610a7a565b6106ae565b604051610165919061096a565b60405180910390f35b34801561017a57600080fd5b506101836106c6565b604051610190919061096a565b60405180910390f35b3480156101a557600080fd5b506101ae6106cc565b6040516101bb9190610ac2565b60405180910390f35b3480156101d057600080fd5b506101d9610749565b6040516101e6919061096a565b60405180910390f35b3480156101fb57600080fd5b5061020461074f565b604051610211919061096a565b60405180910390f35b6102226102b7565b005b34801561023057600080fd5b5061023961075c565b604051610246919061096a565b60405180910390f35b34801561025b57600080fd5b50610264610764565b6040516102719190610aec565b60405180910390f35b34801561028657600080fd5b506102a1600480360381019061029c9190610b33565b610788565b6040516102ae9190610aec565b60405180910390f35b68056bc75e2d631000006102ca346107c7565b101561030b576040517f08c379a000000000000000000000000000000000000000000000000000000000815260040161030290610bbd565b60405180910390fd5b34600160003373ffffffffffffffffffffffffffffffffffffffff1673ffffffffffffffffffffffffffffffffffffffff168152602001908152602001600020600082825461035a9190610c0c565b925050819055506002339080600181540180825580915050600190039060005260206000200160009091909190916101000a81548173ffffffffffffffffffffffffffffffffffffffff021916908373ffffffffffffffffffffffffffffffffffffffff160217905550565b60035481565b600460009054906101000a900460ff1681565b7f000000000000000000000000000000000000000000000000000000000000000073ffffffffffffffffffffffffffffffffffffffff163373ffffffffffffffffffffffffffffffffffffffff161461046d576040517f08c379a000000000000000000000000000000000000000000000000000000000815260040161046490610cae565b60405180910390fd5b7f000000000000000000000000000000000000000000000000000000000000000073ffffffffffffffffffffffffffffffffffffffff163373ffffffffffffffffffffffffffffffffffffffff16146104f2576040517f30cd747100000000000000000000000000000000000000000000000000000000815260040160405180910390fd5b60005b60028054905081101561059e5760006002828154811061051857610517610cce565b5b9060005260206000200160009054906101000a900473ffffffffffffffffffffffffffffffffffffffff1690506000600160008373ffffffffffffffffffffffffffffffffffffffff1673ffffffffffffffffffffffffffffffffffffffff1681526020019081526020016000208190555050808061059690610cfd565b9150506104f5565b50600067ffffffffffffffff8111156105ba576105b9610d45565b5b6040519080825280602002602001820160405280156105e85781602001602082028036833780820191505090505b50600290805190602001906105fe9291906108aa565b5060003373ffffffffffffffffffffffffffffffffffffffff164760405161062590610da5565b60006040518083038185875af1925050503d8060008114610662576040519150601f19603f3d011682016040523d82523d6000602084013e610667565b606091505b50509050806106ab576040517f08c379a00000000000000000000000000000000000000000000000000000000081526004016106a290610e06565b60405180910390fd5b50565b60016020528060005260406000206000915090505481565b60005481565b600061016d60005403610741576002600460006101000a81548160ff021916908360028111156106ff576106fe610985565b5b021790555060028081111561071757610716610985565b5b600460009054906101000a900460ff16600281111561073957610738610985565b5b149050610746565b600090505b90565b61016d81565b68056bc75e2d6310000081565b600047905090565b7f000000000000000000000000000000000000000000000000000000000000000081565b6002818154811061079857600080fd5b906000526020600020016000915054906101000a900473ffffffffffffffffffffffffffffffffffffffff1681565b6000806107d2610801565b90506000670de0b6b3a764000084836107eb9190610e26565b6107f59190610eaf565b90508092505050919050565b60008073155835c5755205597d62703a5a0b37e57a26ee5c905060008173ffffffffffffffffffffffffffffffffffffffff1663feaf968c6040518163ffffffff1660e01b815260040160a060405180830381865afa158015610868573d6000803e3d6000fd5b505050506040513d601f19601f8201168201806040525081019061088c9190610f6d565b5050509150506402540be400816108a39190610fe8565b9250505090565b828054828255906000526020600020908101928215610923579160200282015b828111156109225782518260006101000a81548173ffffffffffffffffffffffffffffffffffffffff021916908373ffffffffffffffffffffffffffffffffffffffff160217905550916020019190600101906108ca565b5b5090506109309190610934565b5090565b5b8082111561094d576000816000905550600101610935565b5090565b6000819050919050565b61096481610951565b82525050565b600060208201905061097f600083018461095b565b92915050565b7f4e487b7100000000000000000000000000000000000000000000000000000000600052602160045260246000fd5b600381106109c5576109c4610985565b5b50565b60008190506109d6826109b4565b919050565b60006109e6826109c8565b9050919050565b6109f6816109db565b82525050565b6000602082019050610a1160008301846109ed565b92915050565b600080fd5b600073ffffffffffffffffffffffffffffffffffffffff82169050919050565b6000610a4782610a1c565b9050919050565b610a5781610a3c565b8114610a6257600080fd5b50565b600081359050610a7481610a4e565b92915050565b600060208284031215610a9057610a8f610a17565b5b6000610a9e84828501610a65565b91505092915050565b60008115159050919050565b610abc81610aa7565b82525050565b6000602082019050610ad76000830184610ab3565b92915050565b610ae681610a3c565b82525050565b6000602082019050610b016000830184610add565b92915050565b610b1081610951565b8114610b1b57600080fd5b50565b600081359050610b2d81610b07565b92915050565b600060208284031215610b4957610b48610a17565b5b6000610b5784828501610b1e565b91505092915050565b600082825260208201905092915050565b7f596f75206e65656420746f207370656e64206d6f726520617661780000000000600082015250565b6000610ba7601b83610b60565b9150610bb282610b71565b602082019050919050565b60006020820190508181036000830152610bd681610b9a565b9050919050565b7f4e487b7100000000000000000000000000000000000000000000000000000000600052601160045260246000fd5b6000610c1782610951565b9150610c2283610951565b9250827fffffffffffffffffffffffffffffffffffffffffffffffffffffffffffffffff03821115610c5757610c56610bdd565b5b828201905092915050565b7f554e415554484f52495a45442121000000000000000000000000000000000000600082015250565b6000610c98600e83610b60565b9150610ca382610c62565b602082019050919050565b60006020820190508181036000830152610cc781610c8b565b9050919050565b7f4e487b7100000000000000000000000000000000000000000000000000000000600052603260045260246000fd5b6000610d0882610951565b91507fffffffffffffffffffffffffffffffffffffffffffffffffffffffffffffffff8203610d3a57610d39610bdd565b5b600182019050919050565b7f4e487b7100000000000000000000000000000000000000000000000000000000600052604160045260246000fd5b600081905092915050565b50565b6000610d8f600083610d74565b9150610d9a82610d7f565b600082019050919050565b6000610db082610d82565b9150819050919050565b7f43616c6c206661696c6564000000000000000000000000000000000000000000600082015250565b6000610df0600b83610b60565b9150610dfb82610dba565b602082019050919050565b60006020820190508181036000830152610e1f81610de3565b9050919050565b6000610e3182610951565b9150610e3c83610951565b9250817fffffffffffffffffffffffffffffffffffffffffffffffffffffffffffffffff0483118215151615610e7557610e74610bdd565b5b828202905092915050565b7f4e487b7100000000000000000000000000000000000000000000000000000000600052601260045260246000fd5b6000610eba82610951565b9150610ec583610951565b925082610ed557610ed4610e80565b5b828204905092915050565b600069ffffffffffffffffffff82169050919050565b610eff81610ee0565b8114610f0a57600080fd5b50565b600081519050610f1c81610ef6565b92915050565b6000819050919050565b610f3581610f22565b8114610f4057600080fd5b50565b600081519050610f5281610f2c565b92915050565b600081519050610f6781610b07565b92915050565b600080600080600060a08688031215610f8957610f88610a17565b5b6000610f9788828901610f0d565b9550506020610fa888828901610f43565b9450506040610fb988828901610f58565b9350506060610fca88828901610f58565b9250506080610fdb88828901610f0d565b9150509295509295909350565b6000610ff382610f22565b9150610ffe83610f22565b9250827f7fffffffffffffffffffffffffffffffffffffffffffffffffffffffffffffff048211600084136000841316161561103d5761103c610bdd565b5b817f8000000000000000000000000000000000000000000000000000000000000000058312600084126000841316161561107a57611079610bdd565b5b827f800000000000000000000000000000000000000000000000000000000000000005821260008413600084121616156110b7576110b6610bdd565b5b827f7fffffffffffffffffffffffffffffffffffffffffffffffffffffffffffffff05821260008412600084121616156110f4576110f3610bdd565b5b82820290509291505056fea2646970667358221220085dd9269a8d0abd31edd724b2a8d7cbf3e4123230a7a76302e80c01cee7fcec64736f6c634300080d0033",
  "linkReferences": {},
  "deployedLinkReferences": {}
}