{
  "_format": "hh-sol-artifact-1",
  "contractName": "StakeHolder",
  "sourceName": "contracts/StakeHolder.sol",
  "abi": [
    {
      "inputs": [],
      "stateMutability": "nonpayable",
      "type": "constructor"
    },
    {
      "inputs": [],
      "name": "NotOwner",
      "type": "error"
    },
    {
      "anonymous": false,
      "inputs": [
        {
          "indexed": false,
          "internalType": "address",
          "name": "sender",
          "type": "address"
        },
        {
          "indexed": false,
          "internalType": "uint256",
          "name": "value",
          "type": "uint256"
        }
      ],
      "name": "Fund",
      "type": "event"
    },
    {
      "anonymous": false,
      "inputs": [
        {
          "indexed": false,
          "internalType": "address",
          "name": "_contractOwner",
          "type": "address"
        },
        {
          "indexed": false,
          "internalType": "uint256",
          "name": "value",
          "type": "uint256"
        }
      ],
      "name": "Withdraw",
      "type": "event"
    },
    {
      "stateMutability": "payable",
      "type": "fallback"
    },
    {
      "inputs": [],
      "name": "MINIMUM_USD",
      "outputs": [
        {
          "internalType": "uint256",
          "name": "",
          "type": "uint256"
        }
      ],
      "stateMutability": "view",
      "type": "function"
    },
    {
      "inputs": [],
      "name": "StakingPeriod",
      "outputs": [
        {
          "internalType": "uint256",
          "name": "",
          "type": "uint256"
        }
      ],
      "stateMutability": "view",
      "type": "function"
    },
    {
      "inputs": [
        {
          "internalType": "address",
          "name": "",
          "type": "address"
        }
      ],
      "name": "addressToAmountFunded",
      "outputs": [
        {
          "internalType": "uint256",
          "name": "",
          "type": "uint256"
        }
      ],
      "stateMutability": "view",
      "type": "function"
    },
    {
      "inputs": [],
      "name": "checkBalance",
      "outputs": [
        {
          "internalType": "uint256",
          "name": "",
          "type": "uint256"
        }
      ],
      "stateMutability": "view",
      "type": "function"
    },
    {
      "inputs": [],
      "name": "contractOwner",
      "outputs": [
        {
          "internalType": "address",
          "name": "",
          "type": "address"
        }
      ],
      "stateMutability": "view",
      "type": "function"
    },
    {
      "inputs": [],
      "name": "fund",
      "outputs": [],
      "stateMutability": "payable",
      "type": "function"
    },
    {
      "inputs": [],
      "name": "funderCount",
      "outputs": [
        {
          "internalType": "uint256",
          "name": "",
          "type": "uint256"
        }
      ],
      "stateMutability": "view",
      "type": "function"
    },
    {
      "inputs": [
        {
          "internalType": "uint256",
          "name": "",
          "type": "uint256"
        }
      ],
      "name": "funders",
      "outputs": [
        {
          "internalType": "address",
          "name": "",
          "type": "address"
        }
      ],
      "stateMutability": "view",
      "type": "function"
    },
    {
      "inputs": [
        {
          "internalType": "address",
          "name": "_funderAddress",
          "type": "address"
        }
      ],
      "name": "getFunderBalance",
      "outputs": [
        {
          "internalType": "uint256",
          "name": "",
          "type": "uint256"
        }
      ],
      "stateMutability": "view",
      "type": "function"
    },
    {
      "inputs": [],
      "name": "numberOfDaysSinceStakingBegan",
      "outputs": [
        {
          "internalType": "uint256",
          "name": "",
          "type": "uint256"
        }
      ],
      "stateMutability": "view",
      "type": "function"
    },
    {
      "inputs": [],
      "name": "status",
      "outputs": [
        {
          "internalType": "bool",
          "name": "WaitingToStake",
          "type": "bool"
        },
        {
          "internalType": "bool",
          "name": "StakingHasBegun",
          "type": "bool"
        },
        {
          "internalType": "bool",
          "name": "StakingHasEnded",
          "type": "bool"
        }
      ],
      "stateMutability": "view",
      "type": "function"
    },
    {
      "inputs": [],
      "name": "withdraw",
      "outputs": [],
      "stateMutability": "nonpayable",
      "type": "function"
    },
    {
      "stateMutability": "payable",
      "type": "receive"
    }
  ],
  "bytecode": "0x60a0604052600060035534801561001557600080fd5b503373ffffffffffffffffffffffffffffffffffffffff1660808173ffffffffffffffffffffffffffffffffffffffff16815250506001600460000160006101000a81548160ff021916908315150217905550608051610ccd610091600039600081816104060152818161049401526107950152610ccd6000f3fe6080604052600436106100ab5760003560e01c80636b69a592116100645780636b69a592146101c6578063b60d4288146101f1578063b8b3d85b146101fb578063c71daccb14610238578063ce606ee014610263578063dc0d3dff1461028e576100ba565b80630b3bc259146100c4578063200d2ed2146100ef5780633ccfd60b1461011c5780633e47d6f3146101335780635600c3b3146101705780635e5dc6601461019b576100ba565b366100ba576100b86102cb565b005b6100c26102cb565b005b3480156100d057600080fd5b506100d96103bf565b6040516100e691906108b6565b60405180910390f35b3480156100fb57600080fd5b506101046103c5565b604051610113939291906108ec565b60405180910390f35b34801561012857600080fd5b50610131610404565b005b34801561013f57600080fd5b5061015a60048036038101906101559190610986565b61070c565b60405161016791906108b6565b60405180910390f35b34801561017c57600080fd5b50610185610724565b60405161019291906108b6565b60405180910390f35b3480156101a757600080fd5b506101b061072a565b6040516101bd91906108b6565b60405180910390f35b3480156101d257600080fd5b506101db610730565b6040516101e891906108b6565b60405180910390f35b6101f96102cb565b005b34801561020757600080fd5b50610222600480360381019061021d9190610986565b61073d565b60405161022f91906108b6565b60405180910390f35b34801561024457600080fd5b5061024d61078b565b60405161025a91906108b6565b60405180910390f35b34801561026f57600080fd5b50610278610793565b60405161028591906109c2565b60405180910390f35b34801561029a57600080fd5b506102b560048036038101906102b09190610a09565b6107b7565b6040516102c291906109c2565b60405180910390f35b6002339080600181540180825580915050600190039060005260206000200160009091909190916101000a81548173ffffffffffffffffffffffffffffffffffffffff021916908373ffffffffffffffffffffffffffffffffffffffff16021790555034600160003373ffffffffffffffffffffffffffffffffffffffff1673ffffffffffffffffffffffffffffffffffffffff168152602001908152602001600020600082825461037d9190610a65565b925050819055507fda8220a878ff7a89474ccffdaa31ea1ed1ffbb0207d5051afccc4fbaf81f9bcd33346040516103b5929190610a99565b60405180910390a1565b60035481565b60048060000160009054906101000a900460ff16908060000160019054906101000a900460ff16908060000160029054906101000a900460ff16905083565b7f000000000000000000000000000000000000000000000000000000000000000073ffffffffffffffffffffffffffffffffffffffff163373ffffffffffffffffffffffffffffffffffffffff1614610492576040517f08c379a000000000000000000000000000000000000000000000000000000000815260040161048990610b1f565b60405180910390fd5b7f000000000000000000000000000000000000000000000000000000000000000073ffffffffffffffffffffffffffffffffffffffff163373ffffffffffffffffffffffffffffffffffffffff1614610517576040517f30cd747100000000000000000000000000000000000000000000000000000000815260040160405180910390fd5b60005b6002805490508110156105c35760006002828154811061053d5761053c610b3f565b5b9060005260206000200160009054906101000a900473ffffffffffffffffffffffffffffffffffffffff1690506000600160008373ffffffffffffffffffffffffffffffffffffffff1673ffffffffffffffffffffffffffffffffffffffff168152602001908152602001600020819055505080806105bb90610b6e565b91505061051a565b50600067ffffffffffffffff8111156105df576105de610bb6565b5b60405190808252806020026020018201604052801561060d5781602001602082028036833780820191505090505b50600290805190602001906106239291906107f6565b5060003373ffffffffffffffffffffffffffffffffffffffff164760405161064a90610c16565b60006040518083038185875af1925050503d8060008114610687576040519150601f19603f3d011682016040523d82523d6000602084013e61068c565b606091505b50509050806106d0576040517f08c379a00000000000000000000000000000000000000000000000000000000081526004016106c790610c77565b60405180910390fd5b7f884edad9ce6fa2440d8a54cc123490eb96d2768479d49ff9c7366125a94243643347604051610701929190610a99565b60405180910390a150565b60016020528060005260406000206000915090505481565b60005481565b61016d81565b68056bc75e2d6310000081565b600080600160008473ffffffffffffffffffffffffffffffffffffffff1673ffffffffffffffffffffffffffffffffffffffff16815260200190815260200160002054905080915050919050565b600047905090565b7f000000000000000000000000000000000000000000000000000000000000000081565b600281815481106107c757600080fd5b906000526020600020016000915054906101000a900473ffffffffffffffffffffffffffffffffffffffff1681565b82805482825590600052602060002090810192821561086f579160200282015b8281111561086e5782518260006101000a81548173ffffffffffffffffffffffffffffffffffffffff021916908373ffffffffffffffffffffffffffffffffffffffff16021790555091602001919060010190610816565b5b50905061087c9190610880565b5090565b5b80821115610899576000816000905550600101610881565b5090565b6000819050919050565b6108b08161089d565b82525050565b60006020820190506108cb60008301846108a7565b92915050565b60008115159050919050565b6108e6816108d1565b82525050565b600060608201905061090160008301866108dd565b61090e60208301856108dd565b61091b60408301846108dd565b949350505050565b600080fd5b600073ffffffffffffffffffffffffffffffffffffffff82169050919050565b600061095382610928565b9050919050565b61096381610948565b811461096e57600080fd5b50565b6000813590506109808161095a565b92915050565b60006020828403121561099c5761099b610923565b5b60006109aa84828501610971565b91505092915050565b6109bc81610948565b82525050565b60006020820190506109d760008301846109b3565b92915050565b6109e68161089d565b81146109f157600080fd5b50565b600081359050610a03816109dd565b92915050565b600060208284031215610a1f57610a1e610923565b5b6000610a2d848285016109f4565b91505092915050565b7f4e487b7100000000000000000000000000000000000000000000000000000000600052601160045260246000fd5b6000610a708261089d565b9150610a7b8361089d565b9250828201905080821115610a9357610a92610a36565b5b92915050565b6000604082019050610aae60008301856109b3565b610abb60208301846108a7565b9392505050565b600082825260208201905092915050565b7f554e415554484f52495a45442121000000000000000000000000000000000000600082015250565b6000610b09600e83610ac2565b9150610b1482610ad3565b602082019050919050565b60006020820190508181036000830152610b3881610afc565b9050919050565b7f4e487b7100000000000000000000000000000000000000000000000000000000600052603260045260246000fd5b6000610b798261089d565b91507fffffffffffffffffffffffffffffffffffffffffffffffffffffffffffffffff8203610bab57610baa610a36565b5b600182019050919050565b7f4e487b7100000000000000000000000000000000000000000000000000000000600052604160045260246000fd5b600081905092915050565b50565b6000610c00600083610be5565b9150610c0b82610bf0565b600082019050919050565b6000610c2182610bf3565b9150819050919050565b7f43616c6c206661696c6564000000000000000000000000000000000000000000600082015250565b6000610c61600b83610ac2565b9150610c6c82610c2b565b602082019050919050565b60006020820190508181036000830152610c9081610c54565b905091905056fea26469706673582212203693efec2c737785dcebbf4bddde863b3ed96a272cb39ecf82cb2fafe5c8488464736f6c63430008110033",
  "linkReferences": {},
  "deployedLinkReferences": {}
}