{
  "_format": "hh-sol-artifact-1",
  "contractName": "StakeHolder",
  "sourceName": "contracts/StakeHolder.sol",
  "abi": [
    {
      "inputs": [],
      "stateMutability": "nonpayable",
      "type": "constructor"
    },
    {
      "inputs": [],
      "name": "NotOwner",
      "type": "error"
    },
    {
      "stateMutability": "payable",
      "type": "fallback"
    },
    {
      "inputs": [],
      "name": "MINIMUM_USD",
      "outputs": [
        {
          "internalType": "uint256",
          "name": "",
          "type": "uint256"
        }
      ],
      "stateMutability": "view",
      "type": "function"
    },
    {
      "inputs": [],
      "name": "StakingPeriod",
      "outputs": [
        {
          "internalType": "uint256",
          "name": "",
          "type": "uint256"
        }
      ],
      "stateMutability": "view",
      "type": "function"
    },
    {
      "inputs": [],
      "name": "activate",
      "outputs": [
        {
          "internalType": "bool",
          "name": "",
          "type": "bool"
        }
      ],
      "stateMutability": "nonpayable",
      "type": "function"
    },
    {
      "inputs": [
        {
          "internalType": "address",
          "name": "",
          "type": "address"
        }
      ],
      "name": "addressToAmountFunded",
      "outputs": [
        {
          "internalType": "uint256",
          "name": "",
          "type": "uint256"
        }
      ],
      "stateMutability": "view",
      "type": "function"
    },
    {
      "inputs": [],
      "name": "checkBalance",
      "outputs": [
        {
          "internalType": "uint256",
          "name": "",
          "type": "uint256"
        }
      ],
      "stateMutability": "view",
      "type": "function"
    },
    {
      "inputs": [],
      "name": "contractOwner",
      "outputs": [
        {
          "internalType": "address",
          "name": "",
          "type": "address"
        }
      ],
      "stateMutability": "view",
      "type": "function"
    },
    {
      "inputs": [],
      "name": "fund",
      "outputs": [],
      "stateMutability": "payable",
      "type": "function"
    },
    {
      "inputs": [],
      "name": "funderCount",
      "outputs": [
        {
          "internalType": "uint256",
          "name": "",
          "type": "uint256"
        }
      ],
      "stateMutability": "view",
      "type": "function"
    },
    {
      "inputs": [
        {
          "internalType": "uint256",
          "name": "",
          "type": "uint256"
        }
      ],
      "name": "funders",
      "outputs": [
        {
          "internalType": "address",
          "name": "",
          "type": "address"
        }
      ],
      "stateMutability": "view",
      "type": "function"
    },
    {
      "inputs": [
        {
          "internalType": "address",
          "name": "_accountAddresss",
          "type": "address"
        }
      ],
      "name": "getAccountBalance",
      "outputs": [
        {
          "internalType": "uint256",
          "name": "",
          "type": "uint256"
        }
      ],
      "stateMutability": "view",
      "type": "function"
    },
    {
      "inputs": [],
      "name": "numberOfDaysSinceStakingBegan",
      "outputs": [
        {
          "internalType": "uint256",
          "name": "",
          "type": "uint256"
        }
      ],
      "stateMutability": "view",
      "type": "function"
    },
    {
      "inputs": [],
      "name": "stakingStarted",
      "outputs": [
        {
          "internalType": "bool",
          "name": "",
          "type": "bool"
        }
      ],
      "stateMutability": "nonpayable",
      "type": "function"
    },
    {
      "inputs": [],
      "name": "status",
      "outputs": [
        {
          "internalType": "bool",
          "name": "WaitingToStake",
          "type": "bool"
        },
        {
          "internalType": "bool",
          "name": "StakingHasBegun",
          "type": "bool"
        },
        {
          "internalType": "bool",
          "name": "StakingHasEnded",
          "type": "bool"
        }
      ],
      "stateMutability": "view",
      "type": "function"
    },
    {
      "inputs": [],
      "name": "withdraw",
      "outputs": [],
      "stateMutability": "nonpayable",
      "type": "function"
    },
    {
      "stateMutability": "payable",
      "type": "receive"
    }
  ],
  "bytecode": "0x60a0604052600060035534801561001557600080fd5b503373ffffffffffffffffffffffffffffffffffffffff1660808173ffffffffffffffffffffffffffffffffffffffff16815250506001600460000160006101000a81548160ff02191690831515021790555060805161121c61009f60003960008181610470015281816104fe015281816105f8015281816106860152610981015261121c6000f3fe6080604052600436106100e15760003560e01c80636b69a5921161007f578063b60d428811610059578063b60d4288146102ba578063c71daccb146102c4578063ce606ee0146102ef578063dc0d3dff1461031a576100f0565b80636b69a592146102275780636b6f01701461025257806393423e9c1461027d576100f0565b80633ccfd60b116100bb5780633ccfd60b1461017d5780633e47d6f3146101945780635600c3b3146101d15780635e5dc660146101fc576100f0565b80630b3bc259146100fa5780630f15f4c014610125578063200d2ed214610150576100f0565b366100f0576100ee610357565b005b6100f8610357565b005b34801561010657600080fd5b5061010f610466565b60405161011c9190610b85565b60405180910390f35b34801561013157600080fd5b5061013a61046c565b6040516101479190610bbb565b60405180910390f35b34801561015c57600080fd5b506101656105b7565b60405161017493929190610bd6565b60405180910390f35b34801561018957600080fd5b506101926105f6565b005b3480156101a057600080fd5b506101bb60048036038101906101b69190610c70565b6108c5565b6040516101c89190610b85565b60405180910390f35b3480156101dd57600080fd5b506101e66108dd565b6040516101f39190610b85565b60405180910390f35b34801561020857600080fd5b506102116108e3565b60405161021e9190610b85565b60405180910390f35b34801561023357600080fd5b5061023c6108e9565b6040516102499190610b85565b60405180910390f35b34801561025e57600080fd5b506102676108f6565b6040516102749190610bbb565b60405180910390f35b34801561028957600080fd5b506102a4600480360381019061029f9190610c70565b61092e565b6040516102b19190610b85565b60405180910390f35b6102c2610357565b005b3480156102d057600080fd5b506102d9610977565b6040516102e69190610b85565b60405180910390f35b3480156102fb57600080fd5b5061030461097f565b6040516103119190610cac565b60405180910390f35b34801561032657600080fd5b50610341600480360381019061033c9190610cf3565b6109a3565b60405161034e9190610cac565b60405180910390f35b68056bc75e2d6310000061036a346109e2565b10156103ab576040517f08c379a00000000000000000000000000000000000000000000000000000000081526004016103a290610d7d565b60405180910390fd5b6002339080600181540180825580915050600190039060005260206000200160009091909190916101000a81548173ffffffffffffffffffffffffffffffffffffffff021916908373ffffffffffffffffffffffffffffffffffffffff16021790555034600160003373ffffffffffffffffffffffffffffffffffffffff1673ffffffffffffffffffffffffffffffffffffffff168152602001908152602001600020600082825461045d9190610dcc565b92505081905550565b60035481565b60007f000000000000000000000000000000000000000000000000000000000000000073ffffffffffffffffffffffffffffffffffffffff163373ffffffffffffffffffffffffffffffffffffffff16146104fc576040517f08c379a00000000000000000000000000000000000000000000000000000000081526004016104f390610e4c565b60405180910390fd5b7f000000000000000000000000000000000000000000000000000000000000000073ffffffffffffffffffffffffffffffffffffffff163373ffffffffffffffffffffffffffffffffffffffff1614610581576040517f30cd747100000000000000000000000000000000000000000000000000000000815260040160405180910390fd5b6001600460000160016101000a81548160ff021916908315150217905550600460000160019054906101000a900460ff16905090565b60048060000160009054906101000a900460ff16908060000160019054906101000a900460ff16908060000160029054906101000a900460ff16905083565b7f000000000000000000000000000000000000000000000000000000000000000073ffffffffffffffffffffffffffffffffffffffff163373ffffffffffffffffffffffffffffffffffffffff1614610684576040517f08c379a000000000000000000000000000000000000000000000000000000000815260040161067b90610e4c565b60405180910390fd5b7f000000000000000000000000000000000000000000000000000000000000000073ffffffffffffffffffffffffffffffffffffffff163373ffffffffffffffffffffffffffffffffffffffff1614610709576040517f30cd747100000000000000000000000000000000000000000000000000000000815260040160405180910390fd5b60005b6002805490508110156107b55760006002828154811061072f5761072e610e6c565b5b9060005260206000200160009054906101000a900473ffffffffffffffffffffffffffffffffffffffff1690506000600160008373ffffffffffffffffffffffffffffffffffffffff1673ffffffffffffffffffffffffffffffffffffffff168152602001908152602001600020819055505080806107ad90610e9b565b91505061070c565b50600067ffffffffffffffff8111156107d1576107d0610ee3565b5b6040519080825280602002602001820160405280156107ff5781602001602082028036833780820191505090505b5060029080519060200190610815929190610ac5565b5060003373ffffffffffffffffffffffffffffffffffffffff164760405161083c90610f43565b60006040518083038185875af1925050503d8060008114610879576040519150601f19603f3d011682016040523d82523d6000602084013e61087e565b606091505b50509050806108c2576040517f08c379a00000000000000000000000000000000000000000000000000000000081526004016108b990610fa4565b60405180910390fd5b50565b60016020528060005260406000206000915090505481565b60005481565b61016d81565b68056bc75e2d6310000081565b60006001600460000160016101000a81548160ff021916908315150217905550600460000160019054906101000a900460ff16905090565b6000600160008373ffffffffffffffffffffffffffffffffffffffff1673ffffffffffffffffffffffffffffffffffffffff168152602001908152602001600020549050919050565b600047905090565b7f000000000000000000000000000000000000000000000000000000000000000081565b600281815481106109b357600080fd5b906000526020600020016000915054906101000a900473ffffffffffffffffffffffffffffffffffffffff1681565b6000806109ed610a1c565b90506000670de0b6b3a76400008483610a069190610fc4565b610a109190611035565b90508092505050919050565b60008073155835c5755205597d62703a5a0b37e57a26ee5c905060008173ffffffffffffffffffffffffffffffffffffffff1663feaf968c6040518163ffffffff1660e01b815260040160a060405180830381865afa158015610a83573d6000803e3d6000fd5b505050506040513d601f19601f82011682018060405250810190610aa791906110f3565b5050509150506402540be40081610abe919061116e565b9250505090565b828054828255906000526020600020908101928215610b3e579160200282015b82811115610b3d5782518260006101000a81548173ffffffffffffffffffffffffffffffffffffffff021916908373ffffffffffffffffffffffffffffffffffffffff16021790555091602001919060010190610ae5565b5b509050610b4b9190610b4f565b5090565b5b80821115610b68576000816000905550600101610b50565b5090565b6000819050919050565b610b7f81610b6c565b82525050565b6000602082019050610b9a6000830184610b76565b92915050565b60008115159050919050565b610bb581610ba0565b82525050565b6000602082019050610bd06000830184610bac565b92915050565b6000606082019050610beb6000830186610bac565b610bf86020830185610bac565b610c056040830184610bac565b949350505050565b600080fd5b600073ffffffffffffffffffffffffffffffffffffffff82169050919050565b6000610c3d82610c12565b9050919050565b610c4d81610c32565b8114610c5857600080fd5b50565b600081359050610c6a81610c44565b92915050565b600060208284031215610c8657610c85610c0d565b5b6000610c9484828501610c5b565b91505092915050565b610ca681610c32565b82525050565b6000602082019050610cc16000830184610c9d565b92915050565b610cd081610b6c565b8114610cdb57600080fd5b50565b600081359050610ced81610cc7565b92915050565b600060208284031215610d0957610d08610c0d565b5b6000610d1784828501610cde565b91505092915050565b600082825260208201905092915050565b7f596f75206e65656420746f207370656e64206d6f726520617661780000000000600082015250565b6000610d67601b83610d20565b9150610d7282610d31565b602082019050919050565b60006020820190508181036000830152610d9681610d5a565b9050919050565b7f4e487b7100000000000000000000000000000000000000000000000000000000600052601160045260246000fd5b6000610dd782610b6c565b9150610de283610b6c565b9250828201905080821115610dfa57610df9610d9d565b5b92915050565b7f554e415554484f52495a45442121000000000000000000000000000000000000600082015250565b6000610e36600e83610d20565b9150610e4182610e00565b602082019050919050565b60006020820190508181036000830152610e6581610e29565b9050919050565b7f4e487b7100000000000000000000000000000000000000000000000000000000600052603260045260246000fd5b6000610ea682610b6c565b91507fffffffffffffffffffffffffffffffffffffffffffffffffffffffffffffffff8203610ed857610ed7610d9d565b5b600182019050919050565b7f4e487b7100000000000000000000000000000000000000000000000000000000600052604160045260246000fd5b600081905092915050565b50565b6000610f2d600083610f12565b9150610f3882610f1d565b600082019050919050565b6000610f4e82610f20565b9150819050919050565b7f43616c6c206661696c6564000000000000000000000000000000000000000000600082015250565b6000610f8e600b83610d20565b9150610f9982610f58565b602082019050919050565b60006020820190508181036000830152610fbd81610f81565b9050919050565b6000610fcf82610b6c565b9150610fda83610b6c565b9250828202610fe881610b6c565b91508282048414831517610fff57610ffe610d9d565b5b5092915050565b7f4e487b7100000000000000000000000000000000000000000000000000000000600052601260045260246000fd5b600061104082610b6c565b915061104b83610b6c565b92508261105b5761105a611006565b5b828204905092915050565b600069ffffffffffffffffffff82169050919050565b61108581611066565b811461109057600080fd5b50565b6000815190506110a28161107c565b92915050565b6000819050919050565b6110bb816110a8565b81146110c657600080fd5b50565b6000815190506110d8816110b2565b92915050565b6000815190506110ed81610cc7565b92915050565b600080600080600060a0868803121561110f5761110e610c0d565b5b600061111d88828901611093565b955050602061112e888289016110c9565b945050604061113f888289016110de565b9350506060611150888289016110de565b925050608061116188828901611093565b9150509295509295909350565b6000611179826110a8565b9150611184836110a8565b9250828202611192816110a8565b91507f800000000000000000000000000000000000000000000000000000000000000084146000841216156111ca576111c9610d9d565b5b82820584148315176111df576111de610d9d565b5b509291505056fea264697066735822122009c6b9af257d546583d74e5c0e6c338c4bcbc97e68f2698a86ef176924bfa9a964736f6c63430008110033",
  "linkReferences": {},
  "deployedLinkReferences": {}
}