{
  "_format": "hh-sol-artifact-1",
  "contractName": "StakeHolder",
  "sourceName": "contracts/StakeHolder.sol",
  "abi": [
    {
      "inputs": [],
      "stateMutability": "nonpayable",
      "type": "constructor"
    },
    {
      "anonymous": false,
      "inputs": [
        {
          "indexed": false,
          "internalType": "address",
          "name": "sender",
          "type": "address"
        },
        {
          "indexed": false,
          "internalType": "uint256",
          "name": "value",
          "type": "uint256"
        }
      ],
      "name": "Fund",
      "type": "event"
    },
    {
      "anonymous": false,
      "inputs": [
        {
          "indexed": true,
          "internalType": "address",
          "name": "previousOwner",
          "type": "address"
        },
        {
          "indexed": true,
          "internalType": "address",
          "name": "newOwner",
          "type": "address"
        }
      ],
      "name": "OwnershipTransferred",
      "type": "event"
    },
    {
      "anonymous": false,
      "inputs": [
        {
          "indexed": false,
          "internalType": "address",
          "name": "_contractOwner",
          "type": "address"
        },
        {
          "indexed": false,
          "internalType": "uint256",
          "name": "value",
          "type": "uint256"
        }
      ],
      "name": "Withdraw",
      "type": "event"
    },
    {
      "stateMutability": "payable",
      "type": "fallback"
    },
    {
      "inputs": [],
      "name": "activate",
      "outputs": [
        {
          "internalType": "enum StakeHolder.StakingStatus",
          "name": "",
          "type": "uint8"
        }
      ],
      "stateMutability": "nonpayable",
      "type": "function"
    },
    {
      "inputs": [],
      "name": "contractOwner",
      "outputs": [
        {
          "internalType": "address",
          "name": "",
          "type": "address"
        }
      ],
      "stateMutability": "view",
      "type": "function"
    },
    {
      "inputs": [],
      "name": "fund",
      "outputs": [],
      "stateMutability": "payable",
      "type": "function"
    },
    {
      "inputs": [
        {
          "internalType": "address",
          "name": "_funder",
          "type": "address"
        }
      ],
      "name": "getAmountStaked",
      "outputs": [
        {
          "internalType": "uint256",
          "name": "_amountStaked",
          "type": "uint256"
        }
      ],
      "stateMutability": "view",
      "type": "function"
    },
    {
      "inputs": [
        {
          "internalType": "uint256",
          "name": "_index",
          "type": "uint256"
        }
      ],
      "name": "getStaker",
      "outputs": [
        {
          "internalType": "address",
          "name": "funder",
          "type": "address"
        }
      ],
      "stateMutability": "view",
      "type": "function"
    },
    {
      "inputs": [],
      "name": "owner",
      "outputs": [
        {
          "internalType": "address",
          "name": "",
          "type": "address"
        }
      ],
      "stateMutability": "view",
      "type": "function"
    },
    {
      "inputs": [],
      "name": "renounceOwnership",
      "outputs": [],
      "stateMutability": "nonpayable",
      "type": "function"
    },
    {
      "inputs": [],
      "name": "stakingEnded",
      "outputs": [
        {
          "internalType": "enum StakeHolder.StakingStatus",
          "name": "",
          "type": "uint8"
        }
      ],
      "stateMutability": "nonpayable",
      "type": "function"
    },
    {
      "inputs": [],
      "name": "stakingStatus",
      "outputs": [
        {
          "internalType": "enum StakeHolder.StakingStatus",
          "name": "",
          "type": "uint8"
        }
      ],
      "stateMutability": "view",
      "type": "function"
    },
    {
      "inputs": [],
      "name": "totalStake",
      "outputs": [
        {
          "internalType": "uint256",
          "name": "",
          "type": "uint256"
        }
      ],
      "stateMutability": "view",
      "type": "function"
    },
    {
      "inputs": [
        {
          "internalType": "address",
          "name": "newOwner",
          "type": "address"
        }
      ],
      "name": "transferOwnership",
      "outputs": [],
      "stateMutability": "nonpayable",
      "type": "function"
    },
    {
      "inputs": [],
      "name": "withdraw",
      "outputs": [],
      "stateMutability": "nonpayable",
      "type": "function"
    },
    {
      "stateMutability": "payable",
      "type": "receive"
    }
  ],
  "bytecode": "0x608060405234801561001057600080fd5b5061002d61002261006460201b60201c565b61006c60201b60201c565b600180819055506000600660006101000a81548160ff0219169083600281111561005a57610059610130565b5b021790555061015f565b600033905090565b60008060009054906101000a900473ffffffffffffffffffffffffffffffffffffffff169050816000806101000a81548173ffffffffffffffffffffffffffffffffffffffff021916908373ffffffffffffffffffffffffffffffffffffffff1602179055508173ffffffffffffffffffffffffffffffffffffffff168173ffffffffffffffffffffffffffffffffffffffff167f8be0079c531659141344cd1fd0a4f28419497f9722a3daafe3b4186f6b6457e060405160405180910390a35050565b7f4e487b7100000000000000000000000000000000000000000000000000000000600052602160045260246000fd5b6117248061016e6000396000f3fe6080604052600436106100ab5760003560e01c80638b0e9f3f116100645780638b0e9f3f146101b05780638da5cb5b146101db578063b60d428814610206578063ce606ee014610210578063e3c998fe1461023b578063f2fde38b14610278576100ba565b80630f15f4c0146100c45780633ccfd60b146100ef578063455ab53c146101065780635104c819146101315780635b9d73c61461016e578063715018a614610199576100ba565b366100ba576100b86102a1565b005b6100c26102a1565b005b3480156100d057600080fd5b506100d96103d9565b6040516100e69190610ea7565b60405180910390f35b3480156100fb57600080fd5b50610104610423565b005b34801561011257600080fd5b5061011b6105a3565b6040516101289190610ea7565b60405180910390f35b34801561013d57600080fd5b5061015860048036038101906101539190610f25565b6105b6565b6040516101659190610f6b565b60405180910390f35b34801561017a57600080fd5b506101836105ff565b6040516101909190610ea7565b60405180910390f35b3480156101a557600080fd5b506101ae610641565b005b3480156101bc57600080fd5b506101c5610655565b6040516101d29190610f6b565b60405180910390f35b3480156101e757600080fd5b506101f061065b565b6040516101fd9190610f95565b60405180910390f35b61020e6102a1565b005b34801561021c57600080fd5b50610225610684565b6040516102329190610f95565b60405180910390f35b34801561024757600080fd5b50610262600480360381019061025d9190610fdc565b6106aa565b60405161026f9190610f95565b60405180910390f35b34801561028457600080fd5b5061029f600480360381019061029a9190610f25565b6106f2565b005b6012600a6102af9190611178565b60646102bb91906111c3565b6102c434610775565b1015610305576040517f08c379a00000000000000000000000000000000000000000000000000000000081526004016102fc90611262565b60405180910390fd5b6004339080600181540180825580915050600190039060005260206000200160009091909190916101000a81548173ffffffffffffffffffffffffffffffffffffffff021916908373ffffffffffffffffffffffffffffffffffffffff16021790555034600560003373ffffffffffffffffffffffffffffffffffffffff1673ffffffffffffffffffffffffffffffffffffffff16815260200190815260200160002060008282546103b79190611282565b9250508190555034600360008282546103d09190611282565b92505081905550565b60006103e36107b4565b6001600660006101000a81548160ff0219169083600281111561040957610408610e30565b5b0217905550600660009054906101000a900460ff16905090565b61042b6107b4565b600060048054806020026020016040519081016040528092919081815260200182805480156104af57602002820191906000526020600020905b8160009054906101000a900473ffffffffffffffffffffffffffffffffffffffff1673ffffffffffffffffffffffffffffffffffffffff1681526020019060010190808311610465575b5050505050905060005b81518110156104f2576104e78282815181106104d8576104d76112b6565b5b60200260200101516001610832565b8060010190506104b9565b5060003373ffffffffffffffffffffffffffffffffffffffff164760405161051990611316565b60006040518083038185875af1925050503d8060008114610556576040519150601f19603f3d011682016040523d82523d6000602084013e61055b565b606091505b505090508061059f576040517f08c379a000000000000000000000000000000000000000000000000000000000815260040161059690611377565b60405180910390fd5b5050565b600660009054906101000a900460ff1681565b6000600560008373ffffffffffffffffffffffffffffffffffffffff1673ffffffffffffffffffffffffffffffffffffffff168152602001908152602001600020549050919050565b60006002600660006101000a81548160ff0219169083600281111561062757610626610e30565b5b0217905550600660009054906101000a900460ff16905090565b6106496107b4565b6106536000610b20565b565b60035481565b60008060009054906101000a900473ffffffffffffffffffffffffffffffffffffffff16905090565b600260009054906101000a900473ffffffffffffffffffffffffffffffffffffffff1681565b6000600482815481106106c0576106bf6112b6565b5b9060005260206000200160009054906101000a900473ffffffffffffffffffffffffffffffffffffffff169050919050565b6106fa6107b4565b600073ffffffffffffffffffffffffffffffffffffffff168173ffffffffffffffffffffffffffffffffffffffff1603610769576040517f08c379a000000000000000000000000000000000000000000000000000000000815260040161076090611409565b60405180910390fd5b61077281610b20565b50565b600080601290506000610786610be4565b905081600a6107959190611178565b81856107a191906111c3565b6107ab9190611458565b92505050919050565b6107bc610e28565b73ffffffffffffffffffffffffffffffffffffffff166107da61065b565b73ffffffffffffffffffffffffffffffffffffffff1614610830576040517f08c379a0000000000000000000000000000000000000000000000000000000008152600401610827906114d5565b60405180910390fd5b565b6000600160048054905061084691906114f5565b90506000600181111561085c5761085b610e30565b5b82600181111561086f5761086e610e30565b5b036109725760005b60048054905081101561096c578373ffffffffffffffffffffffffffffffffffffffff16600482815481106108af576108ae6112b6565b5b9060005260206000200160009054906101000a900473ffffffffffffffffffffffffffffffffffffffff1673ffffffffffffffffffffffffffffffffffffffff16031561096c57818103610961576004849080600181540180825580915050600190039060005260206000200160009091909190916101000a81548173ffffffffffffffffffffffffffffffffffffffff021916908373ffffffffffffffffffffffffffffffffffffffff1602179055505b806001019050610877565b50610b1b565b60018081111561098557610984610e30565b5b82600181111561099857610997610e30565b5b03610b1a5760005b600480549050811015610b18578373ffffffffffffffffffffffffffffffffffffffff16600482815481106109d8576109d76112b6565b5b9060005260206000200160009054906101000a900473ffffffffffffffffffffffffffffffffffffffff1673ffffffffffffffffffffffffffffffffffffffff1603610b0d57818114610ac15760048281548110610a3957610a386112b6565b5b9060005260206000200160009054906101000a900473ffffffffffffffffffffffffffffffffffffffff1660048281548110610a7857610a776112b6565b5b9060005260206000200160006101000a81548173ffffffffffffffffffffffffffffffffffffffff021916908373ffffffffffffffffffffffffffffffffffffffff1602179055505b6004805480610ad357610ad2611529565b5b6001900381819060005260206000200160006101000a81549073ffffffffffffffffffffffffffffffffffffffff02191690559055610b18565b8060010190506109a0565b505b5b505050565b60008060009054906101000a900473ffffffffffffffffffffffffffffffffffffffff169050816000806101000a81548173ffffffffffffffffffffffffffffffffffffffff021916908373ffffffffffffffffffffffffffffffffffffffff1602179055508173ffffffffffffffffffffffffffffffffffffffff168173ffffffffffffffffffffffffffffffffffffffff167f8be0079c531659141344cd1fd0a4f28419497f9722a3daafe3b4186f6b6457e060405160405180910390a35050565b600080601290506000735498bb86bc934c8d34fda08e81d444153d0d06ad905060008173ffffffffffffffffffffffffffffffffffffffff1663feaf968c6040518163ffffffff1660e01b815260040160a060405180830381865afa158015610c51573d6000803e3d6000fd5b505050506040513d601f19601f82011682018060405250810190610c7591906115e5565b5050509150508173ffffffffffffffffffffffffffffffffffffffff1663313ce5676040518163ffffffff1660e01b8152600401602060405180830381865afa158015610cc6573d6000803e3d6000fd5b505050506040513d601f19601f82011682018060405250810190610cea919061168c565b60ff168360ff1610610d8e578173ffffffffffffffffffffffffffffffffffffffff1663313ce5676040518163ffffffff1660e01b8152600401602060405180830381865afa158015610d41573d6000803e3d6000fd5b505050506040513d601f19601f82011682018060405250810190610d65919061168c565b83610d7091906116b9565b600a610d7c9190611178565b81610d8791906111c3565b9350610e22565b828273ffffffffffffffffffffffffffffffffffffffff1663313ce5676040518163ffffffff1660e01b8152600401602060405180830381865afa158015610dda573d6000803e3d6000fd5b505050506040513d601f19601f82011682018060405250810190610dfe919061168c565b610e0891906116b9565b600a610e149190611178565b81610e1f9190611458565b93505b50505090565b600033905090565b7f4e487b7100000000000000000000000000000000000000000000000000000000600052602160045260246000fd5b60038110610e7057610e6f610e30565b5b50565b6000819050610e8182610e5f565b919050565b6000610e9182610e73565b9050919050565b610ea181610e86565b82525050565b6000602082019050610ebc6000830184610e98565b92915050565b600080fd5b600073ffffffffffffffffffffffffffffffffffffffff82169050919050565b6000610ef282610ec7565b9050919050565b610f0281610ee7565b8114610f0d57600080fd5b50565b600081359050610f1f81610ef9565b92915050565b600060208284031215610f3b57610f3a610ec2565b5b6000610f4984828501610f10565b91505092915050565b6000819050919050565b610f6581610f52565b82525050565b6000602082019050610f806000830184610f5c565b92915050565b610f8f81610ee7565b82525050565b6000602082019050610faa6000830184610f86565b92915050565b610fb981610f52565b8114610fc457600080fd5b50565b600081359050610fd681610fb0565b92915050565b600060208284031215610ff257610ff1610ec2565b5b600061100084828501610fc7565b91505092915050565b7f4e487b7100000000000000000000000000000000000000000000000000000000600052601160045260246000fd5b60008160011c9050919050565b6000808291508390505b600185111561108f5780860481111561106b5761106a611009565b5b600185161561107a5780820291505b808102905061108885611038565b945061104f565b94509492505050565b6000826110a85760019050611164565b816110b65760009050611164565b81600181146110cc57600281146110d657611105565b6001915050611164565b60ff8411156110e8576110e7611009565b5b8360020a9150848211156110ff576110fe611009565b5b50611164565b5060208310610133831016604e8410600b841016171561113a5782820a90508381111561113557611134611009565b5b611164565b6111478484846001611045565b9250905081840481111561115e5761115d611009565b5b81810290505b9392505050565b600060ff82169050919050565b600061118382610f52565b915061118e8361116b565b92506111bb7fffffffffffffffffffffffffffffffffffffffffffffffffffffffffffffffff8484611098565b905092915050565b60006111ce82610f52565b91506111d983610f52565b92508282026111e781610f52565b915082820484148315176111fe576111fd611009565b5b5092915050565b600082825260208201905092915050565b7f596f75206e65656420746f207370656e64206d6f726520617661780000000000600082015250565b600061124c601b83611205565b915061125782611216565b602082019050919050565b6000602082019050818103600083015261127b8161123f565b9050919050565b600061128d82610f52565b915061129883610f52565b92508282019050808211156112b0576112af611009565b5b92915050565b7f4e487b7100000000000000000000000000000000000000000000000000000000600052603260045260246000fd5b600081905092915050565b50565b60006113006000836112e5565b915061130b826112f0565b600082019050919050565b6000611321826112f3565b9150819050919050565b7f43616c6c206661696c6564000000000000000000000000000000000000000000600082015250565b6000611361600b83611205565b915061136c8261132b565b602082019050919050565b6000602082019050818103600083015261139081611354565b9050919050565b7f4f776e61626c653a206e6577206f776e657220697320746865207a65726f206160008201527f6464726573730000000000000000000000000000000000000000000000000000602082015250565b60006113f3602683611205565b91506113fe82611397565b604082019050919050565b60006020820190508181036000830152611422816113e6565b9050919050565b7f4e487b7100000000000000000000000000000000000000000000000000000000600052601260045260246000fd5b600061146382610f52565b915061146e83610f52565b92508261147e5761147d611429565b5b828204905092915050565b7f4f776e61626c653a2063616c6c6572206973206e6f7420746865206f776e6572600082015250565b60006114bf602083611205565b91506114ca82611489565b602082019050919050565b600060208201905081810360008301526114ee816114b2565b9050919050565b600061150082610f52565b915061150b83610f52565b925082820390508181111561152357611522611009565b5b92915050565b7f4e487b7100000000000000000000000000000000000000000000000000000000600052603160045260246000fd5b600069ffffffffffffffffffff82169050919050565b61157781611558565b811461158257600080fd5b50565b6000815190506115948161156e565b92915050565b6000819050919050565b6115ad8161159a565b81146115b857600080fd5b50565b6000815190506115ca816115a4565b92915050565b6000815190506115df81610fb0565b92915050565b600080600080600060a0868803121561160157611600610ec2565b5b600061160f88828901611585565b9550506020611620888289016115bb565b9450506040611631888289016115d0565b9350506060611642888289016115d0565b925050608061165388828901611585565b9150509295509295909350565b6116698161116b565b811461167457600080fd5b50565b60008151905061168681611660565b92915050565b6000602082840312156116a2576116a1610ec2565b5b60006116b084828501611677565b91505092915050565b60006116c48261116b565b91506116cf8361116b565b9250828203905060ff8111156116e8576116e7611009565b5b9291505056fea2646970667358221220ffa2796f2cfb96792277cf69b3120c7eb5135f30b27112048d6fe0504fa572cc64736f6c63430008110033",
  "linkReferences": {},
  "deployedLinkReferences": {}
}