{
  "_format": "hh-sol-artifact-1",
  "contractName": "StakeHolder",
  "sourceName": "contracts/StakeHolder.sol",
  "abi": [
    {
      "inputs": [],
      "stateMutability": "nonpayable",
      "type": "constructor"
    },
    {
      "inputs": [],
      "name": "NotOwner",
      "type": "error"
    },
    {
      "stateMutability": "payable",
      "type": "fallback"
    },
    {
      "inputs": [],
      "name": "MINIMUM_USD",
      "outputs": [
        {
          "internalType": "uint256",
          "name": "",
          "type": "uint256"
        }
      ],
      "stateMutability": "view",
      "type": "function"
    },
    {
      "inputs": [],
      "name": "StakingPeriod",
      "outputs": [
        {
          "internalType": "uint256",
          "name": "",
          "type": "uint256"
        }
      ],
      "stateMutability": "view",
      "type": "function"
    },
    {
      "inputs": [],
      "name": "activate",
      "outputs": [
        {
          "internalType": "bool",
          "name": "",
          "type": "bool"
        }
      ],
      "stateMutability": "nonpayable",
      "type": "function"
    },
    {
      "inputs": [
        {
          "internalType": "address",
          "name": "",
          "type": "address"
        }
      ],
      "name": "addressToAmountFunded",
      "outputs": [
        {
          "internalType": "uint256",
          "name": "",
          "type": "uint256"
        }
      ],
      "stateMutability": "view",
      "type": "function"
    },
    {
      "inputs": [],
      "name": "checkBalance",
      "outputs": [
        {
          "internalType": "uint256",
          "name": "",
          "type": "uint256"
        }
      ],
      "stateMutability": "view",
      "type": "function"
    },
    {
      "inputs": [],
      "name": "contractOwner",
      "outputs": [
        {
          "internalType": "address",
          "name": "",
          "type": "address"
        }
      ],
      "stateMutability": "view",
      "type": "function"
    },
    {
      "inputs": [],
      "name": "fund",
      "outputs": [],
      "stateMutability": "payable",
      "type": "function"
    },
    {
      "inputs": [],
      "name": "funderCount",
      "outputs": [
        {
          "internalType": "uint256",
          "name": "",
          "type": "uint256"
        }
      ],
      "stateMutability": "view",
      "type": "function"
    },
    {
      "inputs": [
        {
          "internalType": "uint256",
          "name": "",
          "type": "uint256"
        }
      ],
      "name": "funders",
      "outputs": [
        {
          "internalType": "address",
          "name": "",
          "type": "address"
        }
      ],
      "stateMutability": "view",
      "type": "function"
    },
    {
      "inputs": [],
      "name": "numberOfDaysSinceStakingBegan",
      "outputs": [
        {
          "internalType": "uint256",
          "name": "",
          "type": "uint256"
        }
      ],
      "stateMutability": "view",
      "type": "function"
    },
    {
      "inputs": [],
      "name": "stakingStarted",
      "outputs": [
        {
          "internalType": "bool",
          "name": "",
          "type": "bool"
        }
      ],
      "stateMutability": "nonpayable",
      "type": "function"
    },
    {
      "inputs": [],
      "name": "status",
      "outputs": [
        {
          "internalType": "bool",
          "name": "WaitingToStake",
          "type": "bool"
        },
        {
          "internalType": "bool",
          "name": "StakingHasBegun",
          "type": "bool"
        },
        {
          "internalType": "bool",
          "name": "StakingHasEnded",
          "type": "bool"
        }
      ],
      "stateMutability": "view",
      "type": "function"
    },
    {
      "inputs": [],
      "name": "withdraw",
      "outputs": [],
      "stateMutability": "nonpayable",
      "type": "function"
    },
    {
      "stateMutability": "payable",
      "type": "receive"
    }
  ],
  "bytecode": "0x60a0604052600060035534801561001557600080fd5b503373ffffffffffffffffffffffffffffffffffffffff1660808173ffffffffffffffffffffffffffffffffffffffff16815250506001600460000160006101000a81548160ff02191690831515021790555060805161117b61009f60003960008181610418015281816104a6015281816105a00152818161062e01526108e0015261117b6000f3fe6080604052600436106100c65760003560e01c80635e5dc6601161007f578063b60d428811610059578063b60d428814610262578063c71daccb1461026c578063ce606ee014610297578063dc0d3dff146102c2576100d5565b80635e5dc660146101e15780636b69a5921461020c5780636b6f017014610237576100d5565b80630b3bc259146100df5780630f15f4c01461010a578063200d2ed2146101355780633ccfd60b146101625780633e47d6f3146101795780635600c3b3146101b6576100d5565b366100d5576100d36102ff565b005b6100dd6102ff565b005b3480156100eb57600080fd5b506100f461040e565b6040516101019190610ae4565b60405180910390f35b34801561011657600080fd5b5061011f610414565b60405161012c9190610b1a565b60405180910390f35b34801561014157600080fd5b5061014a61055f565b60405161015993929190610b35565b60405180910390f35b34801561016e57600080fd5b5061017761059e565b005b34801561018557600080fd5b506101a0600480360381019061019b9190610bcf565b61086d565b6040516101ad9190610ae4565b60405180910390f35b3480156101c257600080fd5b506101cb610885565b6040516101d89190610ae4565b60405180910390f35b3480156101ed57600080fd5b506101f661088b565b6040516102039190610ae4565b60405180910390f35b34801561021857600080fd5b50610221610891565b60405161022e9190610ae4565b60405180910390f35b34801561024357600080fd5b5061024c61089e565b6040516102599190610b1a565b60405180910390f35b61026a6102ff565b005b34801561027857600080fd5b506102816108d6565b60405161028e9190610ae4565b60405180910390f35b3480156102a357600080fd5b506102ac6108de565b6040516102b99190610c0b565b60405180910390f35b3480156102ce57600080fd5b506102e960048036038101906102e49190610c52565b610902565b6040516102f69190610c0b565b60405180910390f35b68056bc75e2d6310000061031234610941565b1015610353576040517f08c379a000000000000000000000000000000000000000000000000000000000815260040161034a90610cdc565b60405180910390fd5b6002339080600181540180825580915050600190039060005260206000200160009091909190916101000a81548173ffffffffffffffffffffffffffffffffffffffff021916908373ffffffffffffffffffffffffffffffffffffffff16021790555034600160003373ffffffffffffffffffffffffffffffffffffffff1673ffffffffffffffffffffffffffffffffffffffff16815260200190815260200160002060008282546104059190610d2b565b92505081905550565b60035481565b60007f000000000000000000000000000000000000000000000000000000000000000073ffffffffffffffffffffffffffffffffffffffff163373ffffffffffffffffffffffffffffffffffffffff16146104a4576040517f08c379a000000000000000000000000000000000000000000000000000000000815260040161049b90610dab565b60405180910390fd5b7f000000000000000000000000000000000000000000000000000000000000000073ffffffffffffffffffffffffffffffffffffffff163373ffffffffffffffffffffffffffffffffffffffff1614610529576040517f30cd747100000000000000000000000000000000000000000000000000000000815260040160405180910390fd5b6001600460000160016101000a81548160ff021916908315150217905550600460000160019054906101000a900460ff16905090565b60048060000160009054906101000a900460ff16908060000160019054906101000a900460ff16908060000160029054906101000a900460ff16905083565b7f000000000000000000000000000000000000000000000000000000000000000073ffffffffffffffffffffffffffffffffffffffff163373ffffffffffffffffffffffffffffffffffffffff161461062c576040517f08c379a000000000000000000000000000000000000000000000000000000000815260040161062390610dab565b60405180910390fd5b7f000000000000000000000000000000000000000000000000000000000000000073ffffffffffffffffffffffffffffffffffffffff163373ffffffffffffffffffffffffffffffffffffffff16146106b1576040517f30cd747100000000000000000000000000000000000000000000000000000000815260040160405180910390fd5b60005b60028054905081101561075d576000600282815481106106d7576106d6610dcb565b5b9060005260206000200160009054906101000a900473ffffffffffffffffffffffffffffffffffffffff1690506000600160008373ffffffffffffffffffffffffffffffffffffffff1673ffffffffffffffffffffffffffffffffffffffff1681526020019081526020016000208190555050808061075590610dfa565b9150506106b4565b50600067ffffffffffffffff81111561077957610778610e42565b5b6040519080825280602002602001820160405280156107a75781602001602082028036833780820191505090505b50600290805190602001906107bd929190610a24565b5060003373ffffffffffffffffffffffffffffffffffffffff16476040516107e490610ea2565b60006040518083038185875af1925050503d8060008114610821576040519150601f19603f3d011682016040523d82523d6000602084013e610826565b606091505b505090508061086a576040517f08c379a000000000000000000000000000000000000000000000000000000000815260040161086190610f03565b60405180910390fd5b50565b60016020528060005260406000206000915090505481565b60005481565b61016d81565b68056bc75e2d6310000081565b60006001600460000160016101000a81548160ff021916908315150217905550600460000160019054906101000a900460ff16905090565b600047905090565b7f000000000000000000000000000000000000000000000000000000000000000081565b6002818154811061091257600080fd5b906000526020600020016000915054906101000a900473ffffffffffffffffffffffffffffffffffffffff1681565b60008061094c61097b565b90506000670de0b6b3a764000084836109659190610f23565b61096f9190610f94565b90508092505050919050565b60008073155835c5755205597d62703a5a0b37e57a26ee5c905060008173ffffffffffffffffffffffffffffffffffffffff1663feaf968c6040518163ffffffff1660e01b815260040160a060405180830381865afa1580156109e2573d6000803e3d6000fd5b505050506040513d601f19601f82011682018060405250810190610a069190611052565b5050509150506402540be40081610a1d91906110cd565b9250505090565b828054828255906000526020600020908101928215610a9d579160200282015b82811115610a9c5782518260006101000a81548173ffffffffffffffffffffffffffffffffffffffff021916908373ffffffffffffffffffffffffffffffffffffffff16021790555091602001919060010190610a44565b5b509050610aaa9190610aae565b5090565b5b80821115610ac7576000816000905550600101610aaf565b5090565b6000819050919050565b610ade81610acb565b82525050565b6000602082019050610af96000830184610ad5565b92915050565b60008115159050919050565b610b1481610aff565b82525050565b6000602082019050610b2f6000830184610b0b565b92915050565b6000606082019050610b4a6000830186610b0b565b610b576020830185610b0b565b610b646040830184610b0b565b949350505050565b600080fd5b600073ffffffffffffffffffffffffffffffffffffffff82169050919050565b6000610b9c82610b71565b9050919050565b610bac81610b91565b8114610bb757600080fd5b50565b600081359050610bc981610ba3565b92915050565b600060208284031215610be557610be4610b6c565b5b6000610bf384828501610bba565b91505092915050565b610c0581610b91565b82525050565b6000602082019050610c206000830184610bfc565b92915050565b610c2f81610acb565b8114610c3a57600080fd5b50565b600081359050610c4c81610c26565b92915050565b600060208284031215610c6857610c67610b6c565b5b6000610c7684828501610c3d565b91505092915050565b600082825260208201905092915050565b7f596f75206e65656420746f207370656e64206d6f726520617661780000000000600082015250565b6000610cc6601b83610c7f565b9150610cd182610c90565b602082019050919050565b60006020820190508181036000830152610cf581610cb9565b9050919050565b7f4e487b7100000000000000000000000000000000000000000000000000000000600052601160045260246000fd5b6000610d3682610acb565b9150610d4183610acb565b9250828201905080821115610d5957610d58610cfc565b5b92915050565b7f554e415554484f52495a45442121000000000000000000000000000000000000600082015250565b6000610d95600e83610c7f565b9150610da082610d5f565b602082019050919050565b60006020820190508181036000830152610dc481610d88565b9050919050565b7f4e487b7100000000000000000000000000000000000000000000000000000000600052603260045260246000fd5b6000610e0582610acb565b91507fffffffffffffffffffffffffffffffffffffffffffffffffffffffffffffffff8203610e3757610e36610cfc565b5b600182019050919050565b7f4e487b7100000000000000000000000000000000000000000000000000000000600052604160045260246000fd5b600081905092915050565b50565b6000610e8c600083610e71565b9150610e9782610e7c565b600082019050919050565b6000610ead82610e7f565b9150819050919050565b7f43616c6c206661696c6564000000000000000000000000000000000000000000600082015250565b6000610eed600b83610c7f565b9150610ef882610eb7565b602082019050919050565b60006020820190508181036000830152610f1c81610ee0565b9050919050565b6000610f2e82610acb565b9150610f3983610acb565b9250828202610f4781610acb565b91508282048414831517610f5e57610f5d610cfc565b5b5092915050565b7f4e487b7100000000000000000000000000000000000000000000000000000000600052601260045260246000fd5b6000610f9f82610acb565b9150610faa83610acb565b925082610fba57610fb9610f65565b5b828204905092915050565b600069ffffffffffffffffffff82169050919050565b610fe481610fc5565b8114610fef57600080fd5b50565b60008151905061100181610fdb565b92915050565b6000819050919050565b61101a81611007565b811461102557600080fd5b50565b60008151905061103781611011565b92915050565b60008151905061104c81610c26565b92915050565b600080600080600060a0868803121561106e5761106d610b6c565b5b600061107c88828901610ff2565b955050602061108d88828901611028565b945050604061109e8882890161103d565b93505060606110af8882890161103d565b92505060806110c088828901610ff2565b9150509295509295909350565b60006110d882611007565b91506110e383611007565b92508282026110f181611007565b91507f8000000000000000000000000000000000000000000000000000000000000000841460008412161561112957611128610cfc565b5b828205841483151761113e5761113d610cfc565b5b509291505056fea264697066735822122005f95421d882966fdb3609f57041711586e1b919946f748646f84cf578549b0264736f6c63430008110033",
  "linkReferences": {},
  "deployedLinkReferences": {}
}