{
  "_format": "hh-sol-artifact-1",
  "contractName": "StakeHolder",
  "sourceName": "contracts/StakeHolder.sol",
  "abi": [
    {
      "inputs": [],
      "stateMutability": "nonpayable",
      "type": "constructor"
    },
    {
      "anonymous": false,
      "inputs": [
        {
          "indexed": false,
          "internalType": "address",
          "name": "sender",
          "type": "address"
        },
        {
          "indexed": false,
          "internalType": "uint256",
          "name": "value",
          "type": "uint256"
        }
      ],
      "name": "Fund",
      "type": "event"
    },
    {
      "anonymous": false,
      "inputs": [
        {
          "indexed": true,
          "internalType": "address",
          "name": "previousOwner",
          "type": "address"
        },
        {
          "indexed": true,
          "internalType": "address",
          "name": "newOwner",
          "type": "address"
        }
      ],
      "name": "OwnershipTransferred",
      "type": "event"
    },
    {
      "anonymous": false,
      "inputs": [
        {
          "indexed": false,
          "internalType": "address",
          "name": "_contractOwner",
          "type": "address"
        },
        {
          "indexed": false,
          "internalType": "uint256",
          "name": "value",
          "type": "uint256"
        }
      ],
      "name": "Withdraw",
      "type": "event"
    },
    {
      "stateMutability": "payable",
      "type": "fallback"
    },
    {
      "inputs": [],
      "name": "activate",
      "outputs": [
        {
          "internalType": "enum StakeHolder.StakingStatus",
          "name": "",
          "type": "uint8"
        }
      ],
      "stateMutability": "nonpayable",
      "type": "function"
    },
    {
      "inputs": [],
      "name": "contractOwner",
      "outputs": [
        {
          "internalType": "address",
          "name": "",
          "type": "address"
        }
      ],
      "stateMutability": "view",
      "type": "function"
    },
    {
      "inputs": [],
      "name": "fund",
      "outputs": [],
      "stateMutability": "payable",
      "type": "function"
    },
    {
      "inputs": [
        {
          "internalType": "address",
          "name": "_funder",
          "type": "address"
        }
      ],
      "name": "getAmountStaked",
      "outputs": [
        {
          "internalType": "uint256",
          "name": "_amountStaked",
          "type": "uint256"
        }
      ],
      "stateMutability": "view",
      "type": "function"
    },
    {
      "inputs": [
        {
          "internalType": "uint256",
          "name": "_index",
          "type": "uint256"
        }
      ],
      "name": "getStaker",
      "outputs": [
        {
          "internalType": "address",
          "name": "funder",
          "type": "address"
        }
      ],
      "stateMutability": "view",
      "type": "function"
    },
    {
      "inputs": [],
      "name": "owner",
      "outputs": [
        {
          "internalType": "address",
          "name": "",
          "type": "address"
        }
      ],
      "stateMutability": "view",
      "type": "function"
    },
    {
      "inputs": [],
      "name": "renounceOwnership",
      "outputs": [],
      "stateMutability": "nonpayable",
      "type": "function"
    },
    {
      "inputs": [],
      "name": "stakingEnded",
      "outputs": [
        {
          "internalType": "enum StakeHolder.StakingStatus",
          "name": "",
          "type": "uint8"
        }
      ],
      "stateMutability": "nonpayable",
      "type": "function"
    },
    {
      "inputs": [],
      "name": "stakingStatus",
      "outputs": [
        {
          "internalType": "enum StakeHolder.StakingStatus",
          "name": "",
          "type": "uint8"
        }
      ],
      "stateMutability": "view",
      "type": "function"
    },
    {
      "inputs": [],
      "name": "totalStake",
      "outputs": [
        {
          "internalType": "uint256",
          "name": "",
          "type": "uint256"
        }
      ],
      "stateMutability": "view",
      "type": "function"
    },
    {
      "inputs": [
        {
          "internalType": "address",
          "name": "newOwner",
          "type": "address"
        }
      ],
      "name": "transferOwnership",
      "outputs": [],
      "stateMutability": "nonpayable",
      "type": "function"
    },
    {
      "inputs": [],
      "name": "withdraw",
      "outputs": [],
      "stateMutability": "nonpayable",
      "type": "function"
    },
    {
      "stateMutability": "payable",
      "type": "receive"
    }
  ],
  "bytecode": "0x608060405234801561001057600080fd5b5061002d61002261006460201b60201c565b61006c60201b60201c565b600180819055506000600660006101000a81548160ff0219169083600281111561005a57610059610130565b5b021790555061015f565b600033905090565b60008060009054906101000a900473ffffffffffffffffffffffffffffffffffffffff169050816000806101000a81548173ffffffffffffffffffffffffffffffffffffffff021916908373ffffffffffffffffffffffffffffffffffffffff1602179055508173ffffffffffffffffffffffffffffffffffffffff168173ffffffffffffffffffffffffffffffffffffffff167f8be0079c531659141344cd1fd0a4f28419497f9722a3daafe3b4186f6b6457e060405160405180910390a35050565b7f4e487b7100000000000000000000000000000000000000000000000000000000600052602160045260246000fd5b6112f08061016e6000396000f3fe6080604052600436106100ab5760003560e01c80638b0e9f3f116100645780638b0e9f3f146101b05780638da5cb5b146101db578063b60d428814610206578063ce606ee014610210578063e3c998fe1461023b578063f2fde38b14610278576100ba565b80630f15f4c0146100c45780633ccfd60b146100ef578063455ab53c146101065780635104c819146101315780635b9d73c61461016e578063715018a614610199576100ba565b366100ba576100b86102a1565b005b6100c26102a1565b005b3480156100d057600080fd5b506100d96103d1565b6040516100e69190610c69565b60405180910390f35b3480156100fb57600080fd5b5061010461041b565b005b34801561011257600080fd5b5061011b6105a3565b6040516101289190610c69565b60405180910390f35b34801561013d57600080fd5b5061015860048036038101906101539190610ce7565b6105b6565b6040516101659190610d2d565b60405180910390f35b34801561017a57600080fd5b506101836105ff565b6040516101909190610c69565b60405180910390f35b3480156101a557600080fd5b506101ae610641565b005b3480156101bc57600080fd5b506101c5610655565b6040516101d29190610d2d565b60405180910390f35b3480156101e757600080fd5b506101f061065b565b6040516101fd9190610d57565b60405180910390f35b61020e6102a1565b005b34801561021c57600080fd5b50610225610684565b6040516102329190610d57565b60405180910390f35b34801561024757600080fd5b50610262600480360381019061025d9190610d9e565b6106aa565b60405161026f9190610d57565b60405180910390f35b34801561028457600080fd5b5061029f600480360381019061029a9190610ce7565b6106f2565b005b6012600a6102af9190610f3a565b60016102bb9190610f85565b3410156102fd576040517f08c379a00000000000000000000000000000000000000000000000000000000081526004016102f490611024565b60405180910390fd5b6004339080600181540180825580915050600190039060005260206000200160009091909190916101000a81548173ffffffffffffffffffffffffffffffffffffffff021916908373ffffffffffffffffffffffffffffffffffffffff16021790555034600560003373ffffffffffffffffffffffffffffffffffffffff1673ffffffffffffffffffffffffffffffffffffffff16815260200190815260200160002060008282546103af9190611044565b9250508190555034600360008282546103c89190611044565b92505081905550565b60006103db610775565b6001600660006101000a81548160ff0219169083600281111561040157610400610bf2565b5b0217905550600660009054906101000a900460ff16905090565b610423610775565b600060048054806020026020016040519081016040528092919081815260200182805480156104a757602002820191906000526020600020905b8160009054906101000a900473ffffffffffffffffffffffffffffffffffffffff1673ffffffffffffffffffffffffffffffffffffffff168152602001906001019080831161045d575b5050505050905060005b81518110156104ea576104df8282815181106104d0576104cf611078565b5b602002602001015160016107f3565b8060010190506104b1565b5060003373ffffffffffffffffffffffffffffffffffffffff1647604051610511906110d8565b60006040518083038185875af1925050503d806000811461054e576040519150601f19603f3d011682016040523d82523d6000602084013e610553565b606091505b5050905080610597576040517f08c379a000000000000000000000000000000000000000000000000000000000815260040161058e90611139565b60405180910390fd5b60006003819055505050565b600660009054906101000a900460ff1681565b6000600560008373ffffffffffffffffffffffffffffffffffffffff1673ffffffffffffffffffffffffffffffffffffffff168152602001908152602001600020549050919050565b60006002600660006101000a81548160ff0219169083600281111561062757610626610bf2565b5b0217905550600660009054906101000a900460ff16905090565b610649610775565b6106536000610b26565b565b60035481565b60008060009054906101000a900473ffffffffffffffffffffffffffffffffffffffff16905090565b600260009054906101000a900473ffffffffffffffffffffffffffffffffffffffff1681565b6000600482815481106106c0576106bf611078565b5b9060005260206000200160009054906101000a900473ffffffffffffffffffffffffffffffffffffffff169050919050565b6106fa610775565b600073ffffffffffffffffffffffffffffffffffffffff168173ffffffffffffffffffffffffffffffffffffffff1603610769576040517f08c379a0000000000000000000000000000000000000000000000000000000008152600401610760906111cb565b60405180910390fd5b61077281610b26565b50565b61077d610bea565b73ffffffffffffffffffffffffffffffffffffffff1661079b61065b565b73ffffffffffffffffffffffffffffffffffffffff16146107f1576040517f08c379a00000000000000000000000000000000000000000000000000000000081526004016107e890611237565b60405180910390fd5b565b600060016004805490506108079190611257565b90506000600181111561081d5761081c610bf2565b5b8260018111156108305761082f610bf2565b5b036109335760005b60048054905081101561092d578373ffffffffffffffffffffffffffffffffffffffff16600482815481106108705761086f611078565b5b9060005260206000200160009054906101000a900473ffffffffffffffffffffffffffffffffffffffff1673ffffffffffffffffffffffffffffffffffffffff16031561092d57818103610922576004849080600181540180825580915050600190039060005260206000200160009091909190916101000a81548173ffffffffffffffffffffffffffffffffffffffff021916908373ffffffffffffffffffffffffffffffffffffffff1602179055505b806001019050610838565b50610b21565b60018081111561094657610945610bf2565b5b82600181111561095957610958610bf2565b5b03610b205760005b600480549050811015610b1e578373ffffffffffffffffffffffffffffffffffffffff166004828154811061099957610998611078565b5b9060005260206000200160009054906101000a900473ffffffffffffffffffffffffffffffffffffffff1673ffffffffffffffffffffffffffffffffffffffff1603610b1357818114610a8257600482815481106109fa576109f9611078565b5b9060005260206000200160009054906101000a900473ffffffffffffffffffffffffffffffffffffffff1660048281548110610a3957610a38611078565b5b9060005260206000200160006101000a81548173ffffffffffffffffffffffffffffffffffffffff021916908373ffffffffffffffffffffffffffffffffffffffff1602179055505b6004805480610a9457610a9361128b565b5b6001900381819060005260206000200160006101000a81549073ffffffffffffffffffffffffffffffffffffffff021916905590556000600560008673ffffffffffffffffffffffffffffffffffffffff1673ffffffffffffffffffffffffffffffffffffffff16815260200190815260200160002081905550610b1e565b806001019050610961565b505b5b505050565b60008060009054906101000a900473ffffffffffffffffffffffffffffffffffffffff169050816000806101000a81548173ffffffffffffffffffffffffffffffffffffffff021916908373ffffffffffffffffffffffffffffffffffffffff1602179055508173ffffffffffffffffffffffffffffffffffffffff168173ffffffffffffffffffffffffffffffffffffffff167f8be0079c531659141344cd1fd0a4f28419497f9722a3daafe3b4186f6b6457e060405160405180910390a35050565b600033905090565b7f4e487b7100000000000000000000000000000000000000000000000000000000600052602160045260246000fd5b60038110610c3257610c31610bf2565b5b50565b6000819050610c4382610c21565b919050565b6000610c5382610c35565b9050919050565b610c6381610c48565b82525050565b6000602082019050610c7e6000830184610c5a565b92915050565b600080fd5b600073ffffffffffffffffffffffffffffffffffffffff82169050919050565b6000610cb482610c89565b9050919050565b610cc481610ca9565b8114610ccf57600080fd5b50565b600081359050610ce181610cbb565b92915050565b600060208284031215610cfd57610cfc610c84565b5b6000610d0b84828501610cd2565b91505092915050565b6000819050919050565b610d2781610d14565b82525050565b6000602082019050610d426000830184610d1e565b92915050565b610d5181610ca9565b82525050565b6000602082019050610d6c6000830184610d48565b92915050565b610d7b81610d14565b8114610d8657600080fd5b50565b600081359050610d9881610d72565b92915050565b600060208284031215610db457610db3610c84565b5b6000610dc284828501610d89565b91505092915050565b7f4e487b7100000000000000000000000000000000000000000000000000000000600052601160045260246000fd5b60008160011c9050919050565b6000808291508390505b6001851115610e5157808604811115610e2d57610e2c610dcb565b5b6001851615610e3c5780820291505b8081029050610e4a85610dfa565b9450610e11565b94509492505050565b600082610e6a5760019050610f26565b81610e785760009050610f26565b8160018114610e8e5760028114610e9857610ec7565b6001915050610f26565b60ff841115610eaa57610ea9610dcb565b5b8360020a915084821115610ec157610ec0610dcb565b5b50610f26565b5060208310610133831016604e8410600b8410161715610efc5782820a905083811115610ef757610ef6610dcb565b5b610f26565b610f098484846001610e07565b92509050818404811115610f2057610f1f610dcb565b5b81810290505b9392505050565b600060ff82169050919050565b6000610f4582610d14565b9150610f5083610f2d565b9250610f7d7fffffffffffffffffffffffffffffffffffffffffffffffffffffffffffffffff8484610e5a565b905092915050565b6000610f9082610d14565b9150610f9b83610d14565b9250828202610fa981610d14565b91508282048414831517610fc057610fbf610dcb565b5b5092915050565b600082825260208201905092915050565b7f596f75206e65656420746f207370656e64206d6f726520617661780000000000600082015250565b600061100e601b83610fc7565b915061101982610fd8565b602082019050919050565b6000602082019050818103600083015261103d81611001565b9050919050565b600061104f82610d14565b915061105a83610d14565b925082820190508082111561107257611071610dcb565b5b92915050565b7f4e487b7100000000000000000000000000000000000000000000000000000000600052603260045260246000fd5b600081905092915050565b50565b60006110c26000836110a7565b91506110cd826110b2565b600082019050919050565b60006110e3826110b5565b9150819050919050565b7f43616c6c206661696c6564000000000000000000000000000000000000000000600082015250565b6000611123600b83610fc7565b915061112e826110ed565b602082019050919050565b6000602082019050818103600083015261115281611116565b9050919050565b7f4f776e61626c653a206e6577206f776e657220697320746865207a65726f206160008201527f6464726573730000000000000000000000000000000000000000000000000000602082015250565b60006111b5602683610fc7565b91506111c082611159565b604082019050919050565b600060208201905081810360008301526111e4816111a8565b9050919050565b7f4f776e61626c653a2063616c6c6572206973206e6f7420746865206f776e6572600082015250565b6000611221602083610fc7565b915061122c826111eb565b602082019050919050565b6000602082019050818103600083015261125081611214565b9050919050565b600061126282610d14565b915061126d83610d14565b925082820390508181111561128557611284610dcb565b5b92915050565b7f4e487b7100000000000000000000000000000000000000000000000000000000600052603160045260246000fdfea2646970667358221220d773e3c63d503f110f22bede5c74edfb4966b70a443acc4777b7537bf1fb71b864736f6c63430008110033",
  "linkReferences": {},
  "deployedLinkReferences": {}
}